:020000001fffe0
:020001001fffdf
:020002001fffde
:020003001fffdd
:020004001fffdc
:020005001fffdb
:020006001fffda
:020007001fffd9
:020008001fffd8
:020009001fffd7
:02000a001fffd6
:02000b001fffd5
:02000c001fffd4
:02000d001fffd3
:02000e001fffd2
:02000f001fffd1
:020010001fffd0
:020011001fffcf
:020012001fffce
:020013001fffcd
:020014001fffcc
:020015001fffcb
:020016001fffca
:020017001fffc9
:020018001fffc8
:020019001fffc7
:02001a001fffc6
:02001b001fffc5
:02001c001fffc4
:02001d001fffc3
:02001e001fffc2
:02001f001fffc1
:020020001fffc0
:020021001fffbf
:020022001fffbe
:020023001fffbd
:020024001fffbc
:020025001fffbb
:020026001fffba
:020027001fffb9
:020028001fffb8
:020029001fffb7
:02002a001fffb6
:02002b001fffb5
:02002c001fffb4
:02002d001fffb3
:02002e001fffb2
:02002f001fffb1
:020030001fffb0
:020031001fffaf
:020032001fffae
:020033001fffad
:020034001fffac
:020035001fffab
:020036001fffaa
:020037001fffa9
:020038001fffa8
:020039001fffa7
:02003a001fffa6
:02003b001fffa5
:02003c001fffa4
:02003d001fffa3
:02003e001fffa2
:02003f001fffa1
:020040001fffa0
:020041001fff9f
:020042001fff9e
:020043001fff9d
:020044001fff9c
:020045001fff9b
:020046001fff9a
:020047001fff99
:020048001fff98
:020049001fff97
:02004a001fff96
:02004b001fff95
:02004c001fff94
:02004d001fff93
:02004e001fff92
:02004f001fff91
:020050001fff90
:020051001fff8f
:020052001fff8e
:020053001fff8d
:020054001fff8c
:020055001fff8b
:020056001fff8a
:020057001fff89
:020058001fff88
:020059001fff87
:02005a001fff86
:02005b001fff85
:02005c001fff84
:02005d001fff83
:02005e001fff82
:02005f001fff81
:020060001fff80
:020061001fff7f
:020062001fff7e
:020063001fff7d
:020064001fff7c
:020065001fff7b
:020066001fff7a
:020067001fff79
:020068001fff78
:020069001fff77
:02006a001fff76
:02006b001fff75
:02006c001fff74
:02006d001fff73
:02006e001fff72
:02006f001fff71
:020070001fff70
:020071001fff6f
:020072001fff6e
:020073001fff6d
:020074001ffe6d
:020075001ffe6c
:020076001ffe6b
:020077001ffe6a
:020078001ffe69
:020079001ffe68
:02007a001ffe67
:02007b001ffe66
:02007c001ffe65
:02007d001ffe64
:02007e001ffe63
:02007f001ffe62
:020080001ffe61
:020081001ffe60
:020082001ffe5f
:020083001ffe5e
:020084001ffe5d
:020085001ffe5c
:020086001ffe5b
:020087001ffe5a
:020088001ffe59
:020089001ffe58
:02008a001ffe57
:02008b001ffe56
:02008c001ffe55
:02008d001ffe54
:02008e001ffe53
:02008f001ffe52
:020090001ffe51
:020091001ffe50
:020092001ffe4f
:020093001ffe4e
:020094001ffe4d
:020095001ffe4c
:020096001ffe4b
:020097001ffe4a
:020098001ffe49
:020099001ffe48
:02009a001ffe47
:02009b001ffe46
:02009c001ffe45
:02009d001ffe44
:02009e001ffe43
:02009f001ffe42
:0200a0001ffe41
:0200a1001ffe40
:0200a2001ffe3f
:0200a3001ffe3e
:0200a4001ffe3d
:0200a5001ffe3c
:0200a6001ffe3b
:0200a7001ffe3a
:0200a8001ffe39
:0200a9001ffe38
:0200aa001ffe37
:0200ab001ffe36
:0200ac001ffe35
:0200ad001ffe34
:0200ae001ffe33
:0200af001ffe32
:0200b0001ffe31
:0200b1001ffe30
:0200b2001ffe2f
:0200b3001ffe2e
:0200b4001ffe2d
:0200b5001ffe2c
:0200b6001ffe2b
:0200b7001ffe2a
:0200b8001ffe29
:0200b9001ffe28
:0200ba001ffe27
:0200bb001ffe26
:0200bc001ffe25
:0200bd001ffe24
:0200be001ffe23
:0200bf001ffe22
:0200c0001ffe21
:0200c1001ffe20
:0200c2001ffe1f
:0200c3001ffe1e
:0200c4001ffe1d
:0200c5001ffe1c
:0200c6001ffe1b
:0200c7001ffe1a
:0200c8001ffd1a
:0200c9001ffd19
:0200ca001ffd18
:0200cb001ffd17
:0200cc001ffd16
:0200cd001ffd15
:0200ce001ffd14
:0200cf001ffd13
:0200d0001ffd12
:0200d1001ffd11
:0200d2001ffd10
:0200d3001ffd0f
:0200d4001ffd0e
:0200d5001ffd0d
:0200d6001ffd0c
:0200d7001ffd0b
:0200d8001ffd0a
:0200d9001ffd09
:0200da001ffd08
:0200db001ffd07
:0200dc001ffd06
:0200dd001ffd05
:0200de001ffd04
:0200df001ffd03
:0200e0001ffd02
:0200e1001ffd01
:0200e2001ffd00
:0200e3001ffdff
:0200e4001ffdfe
:0200e5001ffdfd
:0200e6001ffdfc
:0200e7001ffdfb
:0200e8001ffdfa
:0200e9001ffdf9
:0200ea001ffdf8
:0200eb001ffdf7
:0200ec001ffdf6
:0200ed001ffdf5
:0200ee001ffdf4
:0200ef001ffdf3
:0200f0001ffdf2
:0200f1001ffdf1
:0200f2001ffdf0
:0200f3001ffdef
:0200f4001ffdee
:0200f5001ffded
:0200f6001ffdec
:0200f7001ffdeb
:0200f8001ffdea
:0200f9001ffde9
:0200fa001ffde8
:0200fb001ffde7
:0200fc001ffde6
:0200fd001ffde5
:0200fe001ffde4
:0200ff001ffde3
:020100001ffde1
:020101001ffde0
:020102001ffce0
:020103001ffcdf
:020104001ffcde
:020105001ffcdd
:020106001ffcdc
:020107001ffcdb
:020108001ffcda
:020109001ffcd9
:02010a001ffcd8
:02010b001ffcd7
:02010c001ffcd6
:02010d001ffcd5
:02010e001ffcd4
:02010f001ffcd3
:020110001ffcd2
:020111001ffcd1
:020112001ffcd0
:020113001ffccf
:020114001ffcce
:020115001ffccd
:020116001ffccc
:020117001ffccb
:020118001ffcca
:020119001ffcc9
:02011a001ffcc8
:02011b001ffcc7
:02011c001ffcc6
:02011d001ffcc5
:02011e001ffcc4
:02011f001ffcc3
:020120001ffcc2
:020121001ffcc1
:020122001ffcc0
:020123001ffcbf
:020124001ffcbe
:020125001ffcbd
:020126001ffcbc
:020127001ffcbb
:020128001ffcba
:020129001ffcb9
:02012a001ffcb8
:02012b001ffcb7
:02012c001ffcb6
:02012d001ffcb5
:02012e001ffcb4
:02012f001ffcb3
:020130001ffcb2
:020131001ffbb2
:020132001ffbb1
:020133001ffbb0
:020134001ffbaf
:020135001ffbae
:020136001ffbad
:020137001ffbac
:020138001ffbab
:020139001ffbaa
:02013a001ffba9
:02013b001ffba8
:02013c001ffba7
:02013d001ffba6
:02013e001ffba5
:02013f001ffba4
:020140001ffba3
:020141001ffba2
:020142001ffba1
:020143001ffba0
:020144001ffb9f
:020145001ffb9e
:020146001ffb9d
:020147001ffb9c
:020148001ffb9b
:020149001ffb9a
:02014a001ffb99
:02014b001ffb98
:02014c001ffb97
:02014d001ffb96
:02014e001ffb95
:02014f001ffb94
:020150001ffb93
:020151001ffb92
:020152001ffb91
:020153001ffb90
:020154001ffb8f
:020155001ffb8e
:020156001ffb8d
:020157001ffb8c
:020158001ffb8b
:020159001ffb8a
:02015a001ffa8a
:02015b001ffa89
:02015c001ffa88
:02015d001ffa87
:02015e001ffa86
:02015f001ffa85
:020160001ffa84
:020161001ffa83
:020162001ffa82
:020163001ffa81
:020164001ffa80
:020165001ffa7f
:020166001ffa7e
:020167001ffa7d
:020168001ffa7c
:020169001ffa7b
:02016a001ffa7a
:02016b001ffa79
:02016c001ffa78
:02016d001ffa77
:02016e001ffa76
:02016f001ffa75
:020170001ffa74
:020171001ffa73
:020172001ffa72
:020173001ffa71
:020174001ffa70
:020175001ffa6f
:020176001ffa6e
:020177001ffa6d
:020178001ffa6c
:020179001ffa6b
:02017a001ffa6a
:02017b001ffa69
:02017c001ffa68
:02017d001ffa67
:02017e001ffa66
:02017f001ff966
:020180001ff965
:020181001ff964
:020182001ff963
:020183001ff962
:020184001ff961
:020185001ff960
:020186001ff95f
:020187001ff95e
:020188001ff95d
:020189001ff95c
:02018a001ff95b
:02018b001ff95a
:02018c001ff959
:02018d001ff958
:02018e001ff957
:02018f001ff956
:020190001ff955
:020191001ff954
:020192001ff953
:020193001ff952
:020194001ff951
:020195001ff950
:020196001ff94f
:020197001ff94e
:020198001ff94d
:020199001ff94c
:02019a001ff94b
:02019b001ff94a
:02019c001ff949
:02019d001ff948
:02019e001ff947
:02019f001ff946
:0201a0001ff846
:0201a1001ff845
:0201a2001ff844
:0201a3001ff843
:0201a4001ff842
:0201a5001ff841
:0201a6001ff840
:0201a7001ff83f
:0201a8001ff83e
:0201a9001ff83d
:0201aa001ff83c
:0201ab001ff83b
:0201ac001ff83a
:0201ad001ff839
:0201ae001ff838
:0201af001ff837
:0201b0001ff836
:0201b1001ff835
:0201b2001ff834
:0201b3001ff833
:0201b4001ff832
:0201b5001ff831
:0201b6001ff830
:0201b7001ff82f
:0201b8001ff82e
:0201b9001ff82d
:0201ba001ff82c
:0201bb001ff82b
:0201bc001ff82a
:0201bd001ff829
:0201be001ff828
:0201bf001ff728
:0201c0001ff727
:0201c1001ff726
:0201c2001ff725
:0201c3001ff724
:0201c4001ff723
:0201c5001ff722
:0201c6001ff721
:0201c7001ff720
:0201c8001ff71f
:0201c9001ff71e
:0201ca001ff71d
:0201cb001ff71c
:0201cc001ff71b
:0201cd001ff71a
:0201ce001ff719
:0201cf001ff718
:0201d0001ff717
:0201d1001ff716
:0201d2001ff715
:0201d3001ff714
:0201d4001ff713
:0201d5001ff712
:0201d6001ff711
:0201d7001ff710
:0201d8001ff70f
:0201d9001ff70e
:0201da001ff70d
:0201db001ff70c
:0201dc001ff60c
:0201dd001ff60b
:0201de001ff60a
:0201df001ff609
:0201e0001ff608
:0201e1001ff607
:0201e2001ff606
:0201e3001ff605
:0201e4001ff604
:0201e5001ff603
:0201e6001ff602
:0201e7001ff601
:0201e8001ff600
:0201e9001ff6ff
:0201ea001ff6fe
:0201eb001ff6fd
:0201ec001ff6fc
:0201ed001ff6fb
:0201ee001ff6fa
:0201ef001ff6f9
:0201f0001ff6f8
:0201f1001ff6f7
:0201f2001ff6f6
:0201f3001ff6f5
:0201f4001ff6f4
:0201f5001ff6f3
:0201f6001ff6f2
:0201f7001ff5f2
:0201f8001ff5f1
:0201f9001ff5f0
:0201fa001ff5ef
:0201fb001ff5ee
:0201fc001ff5ed
:0201fd001ff5ec
:0201fe001ff5eb
:0201ff001ff5ea
:020200001ff5e8
:020201001ff5e7
:020202001ff5e6
:020203001ff5e5
:020204001ff5e4
:020205001ff5e3
:020206001ff5e2
:020207001ff5e1
:020208001ff5e0
:020209001ff5df
:02020a001ff5de
:02020b001ff5dd
:02020c001ff5dc
:02020d001ff5db
:02020e001ff5da
:02020f001ff5d9
:020210001ff5d8
:020211001ff4d8
:020212001ff4d7
:020213001ff4d6
:020214001ff4d5
:020215001ff4d4
:020216001ff4d3
:020217001ff4d2
:020218001ff4d1
:020219001ff4d0
:02021a001ff4cf
:02021b001ff4ce
:02021c001ff4cd
:02021d001ff4cc
:02021e001ff4cb
:02021f001ff4ca
:020220001ff4c9
:020221001ff4c8
:020222001ff4c7
:020223001ff4c6
:020224001ff4c5
:020225001ff4c4
:020226001ff4c3
:020227001ff4c2
:020228001ff4c1
:020229001ff3c1
:02022a001ff3c0
:02022b001ff3bf
:02022c001ff3be
:02022d001ff3bd
:02022e001ff3bc
:02022f001ff3bb
:020230001ff3ba
:020231001ff3b9
:020232001ff3b8
:020233001ff3b7
:020234001ff3b6
:020235001ff3b5
:020236001ff3b4
:020237001ff3b3
:020238001ff3b2
:020239001ff3b1
:02023a001ff3b0
:02023b001ff3af
:02023c001ff3ae
:02023d001ff3ad
:02023e001ff3ac
:02023f001ff3ab
:020240001ff3aa
:020241001ff2aa
:020242001ff2a9
:020243001ff2a8
:020244001ff2a7
:020245001ff2a6
:020246001ff2a5
:020247001ff2a4
:020248001ff2a3
:020249001ff2a2
:02024a001ff2a1
:02024b001ff2a0
:02024c001ff29f
:02024d001ff29e
:02024e001ff29d
:02024f001ff29c
:020250001ff29b
:020251001ff29a
:020252001ff299
:020253001ff298
:020254001ff297
:020255001ff296
:020256001ff295
:020257001ff195
:020258001ff194
:020259001ff193
:02025a001ff192
:02025b001ff191
:02025c001ff190
:02025d001ff18f
:02025e001ff18e
:02025f001ff18d
:020260001ff18c
:020261001ff18b
:020262001ff18a
:020263001ff189
:020264001ff188
:020265001ff187
:020266001ff186
:020267001ff185
:020268001ff184
:020269001ff183
:02026a001ff182
:02026b001ff181
:02026c001ff180
:02026d001ff080
:02026e001ff07f
:02026f001ff07e
:020270001ff07d
:020271001ff07c
:020272001ff07b
:020273001ff07a
:020274001ff079
:020275001ff078
:020276001ff077
:020277001ff076
:020278001ff075
:020279001ff074
:02027a001ff073
:02027b001ff072
:02027c001ff071
:02027d001ff070
:02027e001ff06f
:02027f001ff06e
:020280001ff06d
:020281001ff06c
:020282001fef6c
:020283001fef6b
:020284001fef6a
:020285001fef69
:020286001fef68
:020287001fef67
:020288001fef66
:020289001fef65
:02028a001fef64
:02028b001fef63
:02028c001fef62
:02028d001fef61
:02028e001fef60
:02028f001fef5f
:020290001fef5e
:020291001fef5d
:020292001fef5c
:020293001fef5b
:020294001fef5a
:020295001fef59
:020296001fef58
:020297001fee58
:020298001fee57
:020299001fee56
:02029a001fee55
:02029b001fee54
:02029c001fee53
:02029d001fee52
:02029e001fee51
:02029f001fee50
:0202a0001fee4f
:0202a1001fee4e
:0202a2001fee4d
:0202a3001fee4c
:0202a4001fee4b
:0202a5001fee4a
:0202a6001fee49
:0202a7001fee48
:0202a8001fee47
:0202a9001fee46
:0202aa001fed46
:0202ab001fed45
:0202ac001fed44
:0202ad001fed43
:0202ae001fed42
:0202af001fed41
:0202b0001fed40
:0202b1001fed3f
:0202b2001fed3e
:0202b3001fed3d
:0202b4001fed3c
:0202b5001fed3b
:0202b6001fed3a
:0202b7001fed39
:0202b8001fed38
:0202b9001fed37
:0202ba001fed36
:0202bb001fed35
:0202bc001fed34
:0202bd001fed33
:0202be001fec33
:0202bf001fec32
:0202c0001fec31
:0202c1001fec30
:0202c2001fec2f
:0202c3001fec2e
:0202c4001fec2d
:0202c5001fec2c
:0202c6001fec2b
:0202c7001fec2a
:0202c8001fec29
:0202c9001fec28
:0202ca001fec27
:0202cb001fec26
:0202cc001fec25
:0202cd001fec24
:0202ce001fec23
:0202cf001fec22
:0202d0001feb22
:0202d1001feb21
:0202d2001feb20
:0202d3001feb1f
:0202d4001feb1e
:0202d5001feb1d
:0202d6001feb1c
:0202d7001feb1b
:0202d8001feb1a
:0202d9001feb19
:0202da001feb18
:0202db001feb17
:0202dc001feb16
:0202dd001feb15
:0202de001feb14
:0202df001feb13
:0202e0001feb12
:0202e1001feb11
:0202e2001feb10
:0202e3001fea10
:0202e4001fea0f
:0202e5001fea0e
:0202e6001fea0d
:0202e7001fea0c
:0202e8001fea0b
:0202e9001fea0a
:0202ea001fea09
:0202eb001fea08
:0202ec001fea07
:0202ed001fea06
:0202ee001fea05
:0202ef001fea04
:0202f0001fea03
:0202f1001fea02
:0202f2001fea01
:0202f3001fea00
:0202f4001fe900
:0202f5001fe9ff
:0202f6001fe9fe
:0202f7001fe9fd
:0202f8001fe9fc
:0202f9001fe9fb
:0202fa001fe9fa
:0202fb001fe9f9
:0202fc001fe9f8
:0202fd001fe9f7
:0202fe001fe9f6
:0202ff001fe9f5
:020300001fe9f3
:020301001fe9f2
:020302001fe9f1
:020303001fe9f0
:020304001fe9ef
:020305001fe9ee
:020306001fe8ee
:020307001fe8ed
:020308001fe8ec
:020309001fe8eb
:02030a001fe8ea
:02030b001fe8e9
:02030c001fe8e8
:02030d001fe8e7
:02030e001fe8e6
:02030f001fe8e5
:020310001fe8e4
:020311001fe8e3
:020312001fe8e2
:020313001fe8e1
:020314001fe8e0
:020315001fe8df
:020316001fe8de
:020317001fe7de
:020318001fe7dd
:020319001fe7dc
:02031a001fe7db
:02031b001fe7da
:02031c001fe7d9
:02031d001fe7d8
:02031e001fe7d7
:02031f001fe7d6
:020320001fe7d5
:020321001fe7d4
:020322001fe7d3
:020323001fe7d2
:020324001fe7d1
:020325001fe7d0
:020326001fe7cf
:020327001fe6cf
:020328001fe6ce
:020329001fe6cd
:02032a001fe6cc
:02032b001fe6cb
:02032c001fe6ca
:02032d001fe6c9
:02032e001fe6c8
:02032f001fe6c7
:020330001fe6c6
:020331001fe6c5
:020332001fe6c4
:020333001fe6c3
:020334001fe6c2
:020335001fe6c1
:020336001fe6c0
:020337001fe6bf
:020338001fe5bf
:020339001fe5be
:02033a001fe5bd
:02033b001fe5bc
:02033c001fe5bb
:02033d001fe5ba
:02033e001fe5b9
:02033f001fe5b8
:020340001fe5b7
:020341001fe5b6
:020342001fe5b5
:020343001fe5b4
:020344001fe5b3
:020345001fe5b2
:020346001fe5b1
:020347001fe5b0
:020348001fe4b0
:020349001fe4af
:02034a001fe4ae
:02034b001fe4ad
:02034c001fe4ac
:02034d001fe4ab
:02034e001fe4aa
:02034f001fe4a9
:020350001fe4a8
:020351001fe4a7
:020352001fe4a6
:020353001fe4a5
:020354001fe4a4
:020355001fe4a3
:020356001fe4a2
:020357001fe3a2
:020358001fe3a1
:020359001fe3a0
:02035a001fe39f
:02035b001fe39e
:02035c001fe39d
:02035d001fe39c
:02035e001fe39b
:02035f001fe39a
:020360001fe399
:020361001fe398
:020362001fe397
:020363001fe396
:020364001fe395
:020365001fe394
:020366001fe393
:020367001fe293
:020368001fe292
:020369001fe291
:02036a001fe290
:02036b001fe28f
:02036c001fe28e
:02036d001fe28d
:02036e001fe28c
:02036f001fe28b
:020370001fe28a
:020371001fe289
:020372001fe288
:020373001fe287
:020374001fe286
:020375001fe285
:020376001fe185
:020377001fe184
:020378001fe183
:020379001fe182
:02037a001fe181
:02037b001fe180
:02037c001fe17f
:02037d001fe17e
:02037e001fe17d
:02037f001fe17c
:020380001fe17b
:020381001fe17a
:020382001fe179
:020383001fe178
:020384001fe177
:020385001fe077
:020386001fe076
:020387001fe075
:020388001fe074
:020389001fe073
:02038a001fe072
:02038b001fe071
:02038c001fe070
:02038d001fe06f
:02038e001fe06e
:02038f001fe06d
:020390001fe06c
:020391001fe06b
:020392001fe06a
:020393001fe069
:020394001fdf69
:020395001fdf68
:020396001fdf67
:020397001fdf66
:020398001fdf65
:020399001fdf64
:02039a001fdf63
:02039b001fdf62
:02039c001fdf61
:02039d001fdf60
:02039e001fdf5f
:02039f001fdf5e
:0203a0001fdf5d
:0203a1001fdf5c
:0203a2001fde5c
:0203a3001fde5b
:0203a4001fde5a
:0203a5001fde59
:0203a6001fde58
:0203a7001fde57
:0203a8001fde56
:0203a9001fde55
:0203aa001fde54
:0203ab001fde53
:0203ac001fde52
:0203ad001fde51
:0203ae001fde50
:0203af001fde4f
:0203b0001fdd4f
:0203b1001fdd4e
:0203b2001fdd4d
:0203b3001fdd4c
:0203b4001fdd4b
:0203b5001fdd4a
:0203b6001fdd49
:0203b7001fdd48
:0203b8001fdd47
:0203b9001fdd46
:0203ba001fdd45
:0203bb001fdd44
:0203bc001fdd43
:0203bd001fdd42
:0203be001fdc42
:0203bf001fdc41
:0203c0001fdc40
:0203c1001fdc3f
:0203c2001fdc3e
:0203c3001fdc3d
:0203c4001fdc3c
:0203c5001fdc3b
:0203c6001fdc3a
:0203c7001fdc39
:0203c8001fdc38
:0203c9001fdc37
:0203ca001fdc36
:0203cb001fdc35
:0203cc001fdb35
:0203cd001fdb34
:0203ce001fdb33
:0203cf001fdb32
:0203d0001fdb31
:0203d1001fdb30
:0203d2001fdb2f
:0203d3001fdb2e
:0203d4001fdb2d
:0203d5001fdb2c
:0203d6001fdb2b
:0203d7001fdb2a
:0203d8001fdb29
:0203d9001fdb28
:0203da001fda28
:0203db001fda27
:0203dc001fda26
:0203dd001fda25
:0203de001fda24
:0203df001fda23
:0203e0001fda22
:0203e1001fda21
:0203e2001fda20
:0203e3001fda1f
:0203e4001fda1e
:0203e5001fda1d
:0203e6001fda1c
:0203e7001fd91c
:0203e8001fd91b
:0203e9001fd91a
:0203ea001fd919
:0203eb001fd918
:0203ec001fd917
:0203ed001fd916
:0203ee001fd915
:0203ef001fd914
:0203f0001fd913
:0203f1001fd912
:0203f2001fd911
:0203f3001fd910
:0203f4001fd810
:0203f5001fd80f
:0203f6001fd80e
:0203f7001fd80d
:0203f8001fd80c
:0203f9001fd80b
:0203fa001fd80a
:0203fb001fd809
:0203fc001fd808
:0203fd001fd807
:0203fe001fd806
:0203ff001fd805
:020400001fd803
:020401001fd703
:020402001fd702
:020403001fd701
:020404001fd700
:020405001fd7ff
:020406001fd7fe
:020407001fd7fd
:020408001fd7fc
:020409001fd7fb
:02040a001fd7fa
:02040b001fd7f9
:02040c001fd7f8
:02040d001fd7f7
:02040e001fd6f7
:02040f001fd6f6
:020410001fd6f5
:020411001fd6f4
:020412001fd6f3
:020413001fd6f2
:020414001fd6f1
:020415001fd6f0
:020416001fd6ef
:020417001fd6ee
:020418001fd6ed
:020419001fd6ec
:02041a001fd6eb
:02041b001fd5eb
:02041c001fd5ea
:02041d001fd5e9
:02041e001fd5e8
:02041f001fd5e7
:020420001fd5e6
:020421001fd5e5
:020422001fd5e4
:020423001fd5e3
:020424001fd5e2
:020425001fd5e1
:020426001fd5e0
:020427001fd4e0
:020428001fd4df
:020429001fd4de
:02042a001fd4dd
:02042b001fd4dc
:02042c001fd4db
:02042d001fd4da
:02042e001fd4d9
:02042f001fd4d8
:020430001fd4d7
:020431001fd4d6
:020432001fd4d5
:020433001fd4d4
:020434001fd3d4
:020435001fd3d3
:020436001fd3d2
:020437001fd3d1
:020438001fd3d0
:020439001fd3cf
:02043a001fd3ce
:02043b001fd3cd
:02043c001fd3cc
:02043d001fd3cb
:02043e001fd3ca
:02043f001fd3c9
:020440001fd2c9
:020441001fd2c8
:020442001fd2c7
:020443001fd2c6
:020444001fd2c5
:020445001fd2c4
:020446001fd2c3
:020447001fd2c2
:020448001fd2c1
:020449001fd2c0
:02044a001fd2bf
:02044b001fd2be
:02044c001fd1be
:02044d001fd1bd
:02044e001fd1bc
:02044f001fd1bb
:020450001fd1ba
:020451001fd1b9
:020452001fd1b8
:020453001fd1b7
:020454001fd1b6
:020455001fd1b5
:020456001fd1b4
:020457001fd1b3
:020458001fd0b3
:020459001fd0b2
:02045a001fd0b1
:02045b001fd0b0
:02045c001fd0af
:02045d001fd0ae
:02045e001fd0ad
:02045f001fd0ac
:020460001fd0ab
:020461001fd0aa
:020462001fd0a9
:020463001fd0a8
:020464001fcfa8
:020465001fcfa7
:020466001fcfa6
:020467001fcfa5
:020468001fcfa4
:020469001fcfa3
:02046a001fcfa2
:02046b001fcfa1
:02046c001fcfa0
:02046d001fcf9f
:02046e001fcf9e
:02046f001fcf9d
:020470001fce9d
:020471001fce9c
:020472001fce9b
:020473001fce9a
:020474001fce99
:020475001fce98
:020476001fce97
:020477001fce96
:020478001fce95
:020479001fce94
:02047a001fce93
:02047b001fce92
:02047c001fcd92
:02047d001fcd91
:02047e001fcd90
:02047f001fcd8f
:020480001fcd8e
:020481001fcd8d
:020482001fcd8c
:020483001fcd8b
:020484001fcd8a
:020485001fcd89
:020486001fcd88
:020487001fcc88
:020488001fcc87
:020489001fcc86
:02048a001fcc85
:02048b001fcc84
:02048c001fcc83
:02048d001fcc82
:02048e001fcc81
:02048f001fcc80
:020490001fcc7f
:020491001fcc7e
:020492001fcc7d
:020493001fcb7d
:020494001fcb7c
:020495001fcb7b
:020496001fcb7a
:020497001fcb79
:020498001fcb78
:020499001fcb77
:02049a001fcb76
:02049b001fcb75
:02049c001fcb74
:02049d001fcb73
:02049e001fca73
:02049f001fca72
:0204a0001fca71
:0204a1001fca70
:0204a2001fca6f
:0204a3001fca6e
:0204a4001fca6d
:0204a5001fca6c
:0204a6001fca6b
:0204a7001fca6a
:0204a8001fca69
:0204a9001fc969
:0204aa001fc968
:0204ab001fc967
:0204ac001fc966
:0204ad001fc965
:0204ae001fc964
:0204af001fc963
:0204b0001fc962
:0204b1001fc961
:0204b2001fc960
:0204b3001fc95f
:0204b4001fc85f
:0204b5001fc85e
:0204b6001fc85d
:0204b7001fc85c
:0204b8001fc85b
:0204b9001fc85a
:0204ba001fc859
:0204bb001fc858
:0204bc001fc857
:0204bd001fc856
:0204be001fc855
:0204bf001fc755
:0204c0001fc754
:0204c1001fc753
:0204c2001fc752
:0204c3001fc751
:0204c4001fc750
:0204c5001fc74f
:0204c6001fc74e
:0204c7001fc74d
:0204c8001fc74c
:0204c9001fc74b
:0204ca001fc64b
:0204cb001fc64a
:0204cc001fc649
:0204cd001fc648
:0204ce001fc647
:0204cf001fc646
:0204d0001fc645
:0204d1001fc644
:0204d2001fc643
:0204d3001fc642
:0204d4001fc641
:0204d5001fc541
:0204d6001fc540
:0204d7001fc53f
:0204d8001fc53e
:0204d9001fc53d
:0204da001fc53c
:0204db001fc53b
:0204dc001fc53a
:0204dd001fc539
:0204de001fc538
:0204df001fc537
:0204e0001fc437
:0204e1001fc436
:0204e2001fc435
:0204e3001fc434
:0204e4001fc433
:0204e5001fc432
:0204e6001fc431
:0204e7001fc430
:0204e8001fc42f
:0204e9001fc42e
:0204ea001fc32e
:0204eb001fc32d
:0204ec001fc32c
:0204ed001fc32b
:0204ee001fc32a
:0204ef001fc329
:0204f0001fc328
:0204f1001fc327
:0204f2001fc326
:0204f3001fc325
:0204f4001fc324
:0204f5001fc224
:0204f6001fc223
:0204f7001fc222
:0204f8001fc221
:0204f9001fc220
:0204fa001fc21f
:0204fb001fc21e
:0204fc001fc21d
:0204fd001fc21c
:0204fe001fc21b
:0204ff001fc11b
:020500001fc119
:020501001fc118
:020502001fc117
:020503001fc116
:020504001fc115
:020505001fc114
:020506001fc113
:020507001fc112
:020508001fc111
:020509001fc110
:02050a001fc010
:02050b001fc00f
:02050c001fc00e
:02050d001fc00d
:02050e001fc00c
:02050f001fc00b
:020510001fc00a
:020511001fc009
:020512001fc008
:020513001fc007
:020514001fbf07
:020515001fbf06
:020516001fbf05
:020517001fbf04
:020518001fbf03
:020519001fbf02
:02051a001fbf01
:02051b001fbf00
:02051c001fbfff
:02051d001fbffe
:02051e001fbefe
:02051f001fbefd
:020520001fbefc
:020521001fbefb
:020522001fbefa
:020523001fbef9
:020524001fbef8
:020525001fbef7
:020526001fbef6
:020527001fbef5
:020528001fbdf5
:020529001fbdf4
:02052a001fbdf3
:02052b001fbdf2
:02052c001fbdf1
:02052d001fbdf0
:02052e001fbdef
:02052f001fbdee
:020530001fbded
:020531001fbdec
:020532001fbdeb
:020533001fbceb
:020534001fbcea
:020535001fbce9
:020536001fbce8
:020537001fbce7
:020538001fbce6
:020539001fbce5
:02053a001fbce4
:02053b001fbce3
:02053c001fbbe3
:02053d001fbbe2
:02053e001fbbe1
:02053f001fbbe0
:020540001fbbdf
:020541001fbbde
:020542001fbbdd
:020543001fbbdc
:020544001fbbdb
:020545001fbbda
:020546001fbada
:020547001fbad9
:020548001fbad8
:020549001fbad7
:02054a001fbad6
:02054b001fbad5
:02054c001fbad4
:02054d001fbad3
:02054e001fbad2
:02054f001fbad1
:020550001fb9d1
:020551001fb9d0
:020552001fb9cf
:020553001fb9ce
:020554001fb9cd
:020555001fb9cc
:020556001fb9cb
:020557001fb9ca
:020558001fb9c9
:020559001fb9c8
:02055a001fb8c8
:02055b001fb8c7
:02055c001fb8c6
:02055d001fb8c5
:02055e001fb8c4
:02055f001fb8c3
:020560001fb8c2
:020561001fb8c1
:020562001fb8c0
:020563001fb8bf
:020564001fb7bf
:020565001fb7be
:020566001fb7bd
:020567001fb7bc
:020568001fb7bb
:020569001fb7ba
:02056a001fb7b9
:02056b001fb7b8
:02056c001fb7b7
:02056d001fb6b7
:02056e001fb6b6
:02056f001fb6b5
:020570001fb6b4
:020571001fb6b3
:020572001fb6b2
:020573001fb6b1
:020574001fb6b0
:020575001fb6af
:020576001fb6ae
:020577001fb5ae
:020578001fb5ad
:020579001fb5ac
:02057a001fb5ab
:02057b001fb5aa
:02057c001fb5a9
:02057d001fb5a8
:02057e001fb5a7
:02057f001fb5a6
:020580001fb4a6
:020581001fb4a5
:020582001fb4a4
:020583001fb4a3
:020584001fb4a2
:020585001fb4a1
:020586001fb4a0
:020587001fb49f
:020588001fb49e
:020589001fb49d
:02058a001fb39d
:02058b001fb39c
:02058c001fb39b
:02058d001fb39a
:02058e001fb399
:02058f001fb398
:020590001fb397
:020591001fb396
:020592001fb395
:020593001fb295
:020594001fb294
:020595001fb293
:020596001fb292
:020597001fb291
:020598001fb290
:020599001fb28f
:02059a001fb28e
:02059b001fb28d
:02059c001fb18d
:02059d001fb18c
:02059e001fb18b
:02059f001fb18a
:0205a0001fb189
:0205a1001fb188
:0205a2001fb187
:0205a3001fb186
:0205a4001fb185
:0205a5001fb184
:0205a6001fb084
:0205a7001fb083
:0205a8001fb082
:0205a9001fb081
:0205aa001fb080
:0205ab001fb07f
:0205ac001fb07e
:0205ad001fb07d
:0205ae001fb07c
:0205af001faf7c
:0205b0001faf7b
:0205b1001faf7a
:0205b2001faf79
:0205b3001faf78
:0205b4001faf77
:0205b5001faf76
:0205b6001faf75
:0205b7001faf74
:0205b8001fae74
:0205b9001fae73
:0205ba001fae72
:0205bb001fae71
:0205bc001fae70
:0205bd001fae6f
:0205be001fae6e
:0205bf001fae6d
:0205c0001fae6c
:0205c1001fad6c
:0205c2001fad6b
:0205c3001fad6a
:0205c4001fad69
:0205c5001fad68
:0205c6001fad67
:0205c7001fad66
:0205c8001fad65
:0205c9001fad64
:0205ca001fac64
:0205cb001fac63
:0205cc001fac62
:0205cd001fac61
:0205ce001fac60
:0205cf001fac5f
:0205d0001fac5e
:0205d1001fac5d
:0205d2001fac5c
:0205d3001fab5c
:0205d4001fab5b
:0205d5001fab5a
:0205d6001fab59
:0205d7001fab58
:0205d8001fab57
:0205d9001fab56
:0205da001fab55
:0205db001fab54
:0205dc001faa54
:0205dd001faa53
:0205de001faa52
:0205df001faa51
:0205e0001faa50
:0205e1001faa4f
:0205e2001faa4e
:0205e3001faa4d
:0205e4001faa4c
:0205e5001fa94c
:0205e6001fa94b
:0205e7001fa94a
:0205e8001fa949
:0205e9001fa948
:0205ea001fa947
:0205eb001fa946
:0205ec001fa945
:0205ed001fa944
:0205ee001fa844
:0205ef001fa843
:0205f0001fa842
:0205f1001fa841
:0205f2001fa840
:0205f3001fa83f
:0205f4001fa83e
:0205f5001fa83d
:0205f6001fa73d
:0205f7001fa73c
:0205f8001fa73b
:0205f9001fa73a
:0205fa001fa739
:0205fb001fa738
:0205fc001fa737
:0205fd001fa736
:0205fe001fa735
:0205ff001fa635
:020600001fa633
:020601001fa632
:020602001fa631
:020603001fa630
:020604001fa62f
:020605001fa62e
:020606001fa62d
:020607001fa62c
:020608001fa52c
:020609001fa52b
:02060a001fa52a
:02060b001fa529
:02060c001fa528
:02060d001fa527
:02060e001fa526
:02060f001fa525
:020610001fa425
:020611001fa424
:020612001fa423
:020613001fa422
:020614001fa421
:020615001fa420
:020616001fa41f
:020617001fa41e
:020618001fa41d
:020619001fa31d
:02061a001fa31c
:02061b001fa31b
:02061c001fa31a
:02061d001fa319
:02061e001fa318
:02061f001fa317
:020620001fa316
:020621001fa315
:020622001fa215
:020623001fa214
:020624001fa213
:020625001fa212
:020626001fa211
:020627001fa210
:020628001fa20f
:020629001fa20e
:02062a001fa10e
:02062b001fa10d
:02062c001fa10c
:02062d001fa10b
:02062e001fa10a
:02062f001fa109
:020630001fa108
:020631001fa107
:020632001fa007
:020633001fa006
:020634001fa005
:020635001fa004
:020636001fa003
:020637001fa002
:020638001fa001
:020639001fa000
:02063a001fa0ff
:02063b001f9fff
:02063c001f9ffe
:02063d001f9ffd
:02063e001f9ffc
:02063f001f9ffb
:020640001f9ffa
:020641001f9ff9
:020642001f9ff8
:020643001f9ef8
:020644001f9ef7
:020645001f9ef6
:020646001f9ef5
:020647001f9ef4
:020648001f9ef3
:020649001f9ef2
:02064a001f9ef1
:02064b001f9df1
:02064c001f9df0
:02064d001f9def
:02064e001f9dee
:02064f001f9ded
:020650001f9dec
:020651001f9deb
:020652001f9dea
:020653001f9de9
:020654001f9ce9
:020655001f9ce8
:020656001f9ce7
:020657001f9ce6
:020658001f9ce5
:020659001f9ce4
:02065a001f9ce3
:02065b001f9ce2
:02065c001f9be2
:02065d001f9be1
:02065e001f9be0
:02065f001f9bdf
:020660001f9bde
:020661001f9bdd
:020662001f9bdc
:020663001f9bdb
:020664001f9adb
:020665001f9ada
:020666001f9ad9
:020667001f9ad8
:020668001f9ad7
:020669001f9ad6
:02066a001f9ad5
:02066b001f9ad4
:02066c001f99d4
:02066d001f99d3
:02066e001f99d2
:02066f001f99d1
:020670001f99d0
:020671001f99cf
:020672001f99ce
:020673001f99cd
:020674001f98cd
:020675001f98cc
:020676001f98cb
:020677001f98ca
:020678001f98c9
:020679001f98c8
:02067a001f98c7
:02067b001f98c6
:02067c001f97c6
:02067d001f97c5
:02067e001f97c4
:02067f001f97c3
:020680001f97c2
:020681001f97c1
:020682001f97c0
:020683001f97bf
:020684001f96bf
:020685001f96be
:020686001f96bd
:020687001f96bc
:020688001f96bb
:020689001f96ba
:02068a001f96b9
:02068b001f96b8
:02068c001f95b8
:02068d001f95b7
:02068e001f95b6
:02068f001f95b5
:020690001f95b4
:020691001f95b3
:020692001f95b2
:020693001f95b1
:020694001f94b1
:020695001f94b0
:020696001f94af
:020697001f94ae
:020698001f94ad
:020699001f94ac
:02069a001f94ab
:02069b001f94aa
:02069c001f93aa
:02069d001f93a9
:02069e001f93a8
:02069f001f93a7
:0206a0001f93a6
:0206a1001f93a5
:0206a2001f93a4
:0206a3001f93a3
:0206a4001f92a3
:0206a5001f92a2
:0206a6001f92a1
:0206a7001f92a0
:0206a8001f929f
:0206a9001f929e
:0206aa001f929d
:0206ab001f929c
:0206ac001f919c
:0206ad001f919b
:0206ae001f919a
:0206af001f9199
:0206b0001f9198
:0206b1001f9197
:0206b2001f9196
:0206b3001f9195
:0206b4001f9095
:0206b5001f9094
:0206b6001f9093
:0206b7001f9092
:0206b8001f9091
:0206b9001f9090
:0206ba001f908f
:0206bb001f8f8f
:0206bc001f8f8e
:0206bd001f8f8d
:0206be001f8f8c
:0206bf001f8f8b
:0206c0001f8f8a
:0206c1001f8f89
:0206c2001f8f88
:0206c3001f8e88
:0206c4001f8e87
:0206c5001f8e86
:0206c6001f8e85
:0206c7001f8e84
:0206c8001f8e83
:0206c9001f8e82
:0206ca001f8e81
:0206cb001f8d81
:0206cc001f8d80
:0206cd001f8d7f
:0206ce001f8d7e
:0206cf001f8d7d
:0206d0001f8d7c
:0206d1001f8d7b
:0206d2001f8d7a
:0206d3001f8c7a
:0206d4001f8c79
:0206d5001f8c78
:0206d6001f8c77
:0206d7001f8c76
:0206d8001f8c75
:0206d9001f8c74
:0206da001f8b74
:0206db001f8b73
:0206dc001f8b72
:0206dd001f8b71
:0206de001f8b70
:0206df001f8b6f
:0206e0001f8b6e
:0206e1001f8b6d
:0206e2001f8a6d
:0206e3001f8a6c
:0206e4001f8a6b
:0206e5001f8a6a
:0206e6001f8a69
:0206e7001f8a68
:0206e8001f8a67
:0206e9001f8967
:0206ea001f8966
:0206eb001f8965
:0206ec001f8964
:0206ed001f8963
:0206ee001f8962
:0206ef001f8961
:0206f0001f8960
:0206f1001f8860
:0206f2001f885f
:0206f3001f885e
:0206f4001f885d
:0206f5001f885c
:0206f6001f885b
:0206f7001f885a
:0206f8001f875a
:0206f9001f8759
:0206fa001f8758
:0206fb001f8757
:0206fc001f8756
:0206fd001f8755
:0206fe001f8754
:0206ff001f8753
:020700001f8652
:020701001f8651
:020702001f8650
:020703001f864f
:020704001f864e
:020705001f864d
:020706001f864c
:020707001f854c
:020708001f854b
:020709001f854a
:02070a001f8549
:02070b001f8548
:02070c001f8547
:02070d001f8546
:02070e001f8545
:02070f001f8445
:020710001f8444
:020711001f8443
:020712001f8442
:020713001f8441
:020714001f8440
:020715001f843f
:020716001f833f
:020717001f833e
:020718001f833d
:020719001f833c
:02071a001f833b
:02071b001f833a
:02071c001f8339
:02071d001f8239
:02071e001f8238
:02071f001f8237
:020720001f8236
:020721001f8235
:020722001f8234
:020723001f8233
:020724001f8232
:020725001f8132
:020726001f8131
:020727001f8130
:020728001f812f
:020729001f812e
:02072a001f812d
:02072b001f812c
:02072c001f802c
:02072d001f802b
:02072e001f802a
:02072f001f8029
:020730001f8028
:020731001f8027
:020732001f8026
:020733001f7f26
:020734001f7f25
:020735001f7f24
:020736001f7f23
:020737001f7f22
:020738001f7f21
:020739001f7f20
:02073a001f7e20
:02073b001f7e1f
:02073c001f7e1e
:02073d001f7e1d
:02073e001f7e1c
:02073f001f7e1b
:020740001f7e1a
:020741001f7e19
:020742001f7d19
:020743001f7d18
:020744001f7d17
:020745001f7d16
:020746001f7d15
:020747001f7d14
:020748001f7d13
:020749001f7c13
:02074a001f7c12
:02074b001f7c11
:02074c001f7c10
:02074d001f7c0f
:02074e001f7c0e
:02074f001f7c0d
:020750001f7b0d
:020751001f7b0c
:020752001f7b0b
:020753001f7b0a
:020754001f7b09
:020755001f7b08
:020756001f7b07
:020757001f7a07
:020758001f7a06
:020759001f7a05
:02075a001f7a04
:02075b001f7a03
:02075c001f7a02
:02075d001f7a01
:02075e001f7901
:02075f001f7900
:020760001f79ff
:020761001f79fe
:020762001f79fd
:020763001f79fc
:020764001f79fb
:020765001f78fb
:020766001f78fa
:020767001f78f9
:020768001f78f8
:020769001f78f7
:02076a001f78f6
:02076b001f78f5
:02076c001f77f5
:02076d001f77f4
:02076e001f77f3
:02076f001f77f2
:020770001f77f1
:020771001f77f0
:020772001f77ef
:020773001f76ef
:020774001f76ee
:020775001f76ed
:020776001f76ec
:020777001f76eb
:020778001f76ea
:020779001f76e9
:02077a001f75e9
:02077b001f75e8
:02077c001f75e7
:02077d001f75e6
:02077e001f75e5
:02077f001f75e4
:020780001f75e3
:020781001f74e3
:020782001f74e2
:020783001f74e1
:020784001f74e0
:020785001f74df
:020786001f74de
:020787001f74dd
:020788001f73dd
:020789001f73dc
:02078a001f73db
:02078b001f73da
:02078c001f73d9
:02078d001f73d8
:02078e001f73d7
:02078f001f72d7
:020790001f72d6
:020791001f72d5
:020792001f72d4
:020793001f72d3
:020794001f72d2
:020795001f72d1
:020796001f71d1
:020797001f71d0
:020798001f71cf
:020799001f71ce
:02079a001f71cd
:02079b001f71cc
:02079c001f71cb
:02079d001f70cb
:02079e001f70ca
:02079f001f70c9
:0207a0001f70c8
:0207a1001f70c7
:0207a2001f70c6
:0207a3001f70c5
:0207a4001f6fc5
:0207a5001f6fc4
:0207a6001f6fc3
:0207a7001f6fc2
:0207a8001f6fc1
:0207a9001f6fc0
:0207aa001f6fbf
:0207ab001f6ebf
:0207ac001f6ebe
:0207ad001f6ebd
:0207ae001f6ebc
:0207af001f6ebb
:0207b0001f6eba
:0207b1001f6dba
:0207b2001f6db9
:0207b3001f6db8
:0207b4001f6db7
:0207b5001f6db6
:0207b6001f6db5
:0207b7001f6db4
:0207b8001f6cb4
:0207b9001f6cb3
:0207ba001f6cb2
:0207bb001f6cb1
:0207bc001f6cb0
:0207bd001f6caf
:0207be001f6cae
:0207bf001f6bae
:0207c0001f6bad
:0207c1001f6bac
:0207c2001f6bab
:0207c3001f6baa
:0207c4001f6ba9
:0207c5001f6ba8
:0207c6001f6aa8
:0207c7001f6aa7
:0207c8001f6aa6
:0207c9001f6aa5
:0207ca001f6aa4
:0207cb001f6aa3
:0207cc001f69a3
:0207cd001f69a2
:0207ce001f69a1
:0207cf001f69a0
:0207d0001f699f
:0207d1001f699e
:0207d2001f699d
:0207d3001f689d
:0207d4001f689c
:0207d5001f689b
:0207d6001f689a
:0207d7001f6899
:0207d8001f6898
:0207d9001f6897
:0207da001f6797
:0207db001f6796
:0207dc001f6795
:0207dd001f6794
:0207de001f6793
:0207df001f6792
:0207e0001f6692
:0207e1001f6691
:0207e2001f6690
:0207e3001f668f
:0207e4001f668e
:0207e5001f668d
:0207e6001f668c
:0207e7001f658c
:0207e8001f658b
:0207e9001f658a
:0207ea001f6589
:0207eb001f6588
:0207ec001f6587
:0207ed001f6586
:0207ee001f6486
:0207ef001f6485
:0207f0001f6484
:0207f1001f6483
:0207f2001f6482
:0207f3001f6481
:0207f4001f6381
:0207f5001f6380
:0207f6001f637f
:0207f7001f637e
:0207f8001f637d
:0207f9001f637c
:0207fa001f637b
:0207fb001f627b
:0207fc001f627a
:0207fd001f6279
:0207fe001f6278
:0207ff001f6277
:020800001f6275
:020801001f6175
:020802001f6174
:020803001f6173
:020804001f6172
:020805001f6171
:020806001f6170
:020807001f616f
:020808001f606f
:020809001f606e
:02080a001f606d
:02080b001f606c
:02080c001f606b
:02080d001f606a
:02080e001f5f6a
:02080f001f5f69
:020810001f5f68
:020811001f5f67
:020812001f5f66
:020813001f5f65
:020814001f5f64
:020815001f5e64
:020816001f5e63
:020817001f5e62
:020818001f5e61
:020819001f5e60
:02081a001f5e5f
:02081b001f5d5f
:02081c001f5d5e
:02081d001f5d5d
:02081e001f5d5c
:02081f001f5d5b
:020820001f5d5a
:020821001f5d59
:020822001f5c59
:020823001f5c58
:020824001f5c57
:020825001f5c56
:020826001f5c55
:020827001f5c54
:020828001f5b54
:020829001f5b53
:02082a001f5b52
:02082b001f5b51
:02082c001f5b50
:02082d001f5b4f
:02082e001f5a4f
:02082f001f5a4e
:020830001f5a4d
:020831001f5a4c
:020832001f5a4b
:020833001f5a4a
:020834001f5a49
:020835001f5949
:020836001f5948
:020837001f5947
:020838001f5946
:020839001f5945
:02083a001f5944
:02083b001f5844
:02083c001f5843
:02083d001f5842
:02083e001f5841
:02083f001f5840
:020840001f583f
:020841001f573f
:020842001f573e
:020843001f573d
:020844001f573c
:020845001f573b
:020846001f573a
:020847001f5739
:020848001f5639
:020849001f5638
:02084a001f5637
:02084b001f5636
:02084c001f5635
:02084d001f5634
:02084e001f5534
:02084f001f5533
:020850001f5532
:020851001f5531
:020852001f5530
:020853001f552f
:020854001f542f
:020855001f542e
:020856001f542d
:020857001f542c
:020858001f542b
:020859001f542a
:02085a001f5429
:02085b001f5329
:02085c001f5328
:02085d001f5327
:02085e001f5326
:02085f001f5325
:020860001f5324
:020861001f5224
:020862001f5223
:020863001f5222
:020864001f5221
:020865001f5220
:020866001f521f
:020867001f511f
:020868001f511e
:020869001f511d
:02086a001f511c
:02086b001f511b
:02086c001f511a
:02086d001f501a
:02086e001f5019
:02086f001f5018
:020870001f5017
:020871001f5016
:020872001f5015
:020873001f5014
:020874001f4f14
:020875001f4f13
:020876001f4f12
:020877001f4f11
:020878001f4f10
:020879001f4f0f
:02087a001f4e0f
:02087b001f4e0e
:02087c001f4e0d
:02087d001f4e0c
:02087e001f4e0b
:02087f001f4e0a
:020880001f4d0a
:020881001f4d09
:020882001f4d08
:020883001f4d07
:020884001f4d06
:020885001f4d05
:020886001f4c05
:020887001f4c04
:020888001f4c03
:020889001f4c02
:02088a001f4c01
:02088b001f4c00
:02088c001f4b00
:02088d001f4bff
:02088e001f4bfe
:02088f001f4bfd
:020890001f4bfc
:020891001f4bfb
:020892001f4afb
:020893001f4afa
:020894001f4af9
:020895001f4af8
:020896001f4af7
:020897001f4af6
:020898001f49f6
:020899001f49f5
:02089a001f49f4
:02089b001f49f3
:02089c001f49f2
:02089d001f49f1
:02089e001f48f1
:02089f001f48f0
:0208a0001f48ef
:0208a1001f48ee
:0208a2001f48ed
:0208a3001f48ec
:0208a4001f47ec
:0208a5001f47eb
:0208a6001f47ea
:0208a7001f47e9
:0208a8001f47e8
:0208a9001f47e7
:0208aa001f47e6
:0208ab001f46e6
:0208ac001f46e5
:0208ad001f46e4
:0208ae001f46e3
:0208af001f46e2
:0208b0001f46e1
:0208b1001f45e1
:0208b2001f45e0
:0208b3001f45df
:0208b4001f45de
:0208b5001f45dd
:0208b6001f45dc
:0208b7001f44dc
:0208b8001f44db
:0208b9001f44da
:0208ba001f44d9
:0208bb001f44d8
:0208bc001f44d7
:0208bd001f43d7
:0208be001f43d6
:0208bf001f43d5
:0208c0001f43d4
:0208c1001f43d3
:0208c2001f43d2
:0208c3001f42d2
:0208c4001f42d1
:0208c5001f42d0
:0208c6001f42cf
:0208c7001f42ce
:0208c8001f41ce
:0208c9001f41cd
:0208ca001f41cc
:0208cb001f41cb
:0208cc001f41ca
:0208cd001f41c9
:0208ce001f40c9
:0208cf001f40c8
:0208d0001f40c7
:0208d1001f40c6
:0208d2001f40c5
:0208d3001f40c4
:0208d4001f3fc4
:0208d5001f3fc3
:0208d6001f3fc2
:0208d7001f3fc1
:0208d8001f3fc0
:0208d9001f3fbf
:0208da001f3ebf
:0208db001f3ebe
:0208dc001f3ebd
:0208dd001f3ebc
:0208de001f3ebb
:0208df001f3eba
:0208e0001f3dba
:0208e1001f3db9
:0208e2001f3db8
:0208e3001f3db7
:0208e4001f3db6
:0208e5001f3db5
:0208e6001f3cb5
:0208e7001f3cb4
:0208e8001f3cb3
:0208e9001f3cb2
:0208ea001f3cb1
:0208eb001f3cb0
:0208ec001f3bb0
:0208ed001f3baf
:0208ee001f3bae
:0208ef001f3bad
:0208f0001f3bac
:0208f1001f3bab
:0208f2001f3aab
:0208f3001f3aaa
:0208f4001f3aa9
:0208f5001f3aa8
:0208f6001f3aa7
:0208f7001f3aa6
:0208f8001f39a6
:0208f9001f39a5
:0208fa001f39a4
:0208fb001f39a3
:0208fc001f39a2
:0208fd001f38a2
:0208fe001f38a1
:0208ff001f38a0
:020900001f389e
:020901001f389d
:020902001f389c
:020903001f379c
:020904001f379b
:020905001f379a
:020906001f3799
:020907001f3798
:020908001f3797
:020909001f3697
:02090a001f3696
:02090b001f3695
:02090c001f3694
:02090d001f3693
:02090e001f3692
:02090f001f3592
:020910001f3591
:020911001f3590
:020912001f358f
:020913001f358e
:020914001f358d
:020915001f348d
:020916001f348c
:020917001f348b
:020918001f348a
:020919001f3489
:02091a001f3389
:02091b001f3388
:02091c001f3387
:02091d001f3386
:02091e001f3385
:02091f001f3384
:020920001f3284
:020921001f3283
:020922001f3282
:020923001f3281
:020924001f3280
:020925001f327f
:020926001f317f
:020927001f317e
:020928001f317d
:020929001f317c
:02092a001f317b
:02092b001f317a
:02092c001f307a
:02092d001f3079
:02092e001f3078
:02092f001f3077
:020930001f3076
:020931001f2f76
:020932001f2f75
:020933001f2f74
:020934001f2f73
:020935001f2f72
:020936001f2f71
:020937001f2e71
:020938001f2e70
:020939001f2e6f
:02093a001f2e6e
:02093b001f2e6d
:02093c001f2e6c
:02093d001f2d6c
:02093e001f2d6b
:02093f001f2d6a
:020940001f2d69
:020941001f2d68
:020942001f2c68
:020943001f2c67
:020944001f2c66
:020945001f2c65
:020946001f2c64
:020947001f2c63
:020948001f2b63
:020949001f2b62
:02094a001f2b61
:02094b001f2b60
:02094c001f2b5f
:02094d001f2b5e
:02094e001f2a5e
:02094f001f2a5d
:020950001f2a5c
:020951001f2a5b
:020952001f2a5a
:020953001f295a
:020954001f2959
:020955001f2958
:020956001f2957
:020957001f2956
:020958001f2955
:020959001f2855
:02095a001f2854
:02095b001f2853
:02095c001f2852
:02095d001f2851
:02095e001f2751
:02095f001f2750
:020960001f274f
:020961001f274e
:020962001f274d
:020963001f274c
:020964001f264c
:020965001f264b
:020966001f264a
:020967001f2649
:020968001f2648
:020969001f2647
:02096a001f2547
:02096b001f2546
:02096c001f2545
:02096d001f2544
:02096e001f2543
:02096f001f2443
:020970001f2442
:020971001f2441
:020972001f2440
:020973001f243f
:020974001f243e
:020975001f233e
:020976001f233d
:020977001f233c
:020978001f233b
:020979001f233a
:02097a001f223a
:02097b001f2239
:02097c001f2238
:02097d001f2237
:02097e001f2236
:02097f001f2235
:020980001f2135
:020981001f2134
:020982001f2133
:020983001f2132
:020984001f2131
:020985001f2031
:020986001f2030
:020987001f202f
:020988001f202e
:020989001f202d
:02098a001f202c
:02098b001f1f2c
:02098c001f1f2b
:02098d001f1f2a
:02098e001f1f29
:02098f001f1f28
:020990001f1e28
:020991001f1e27
:020992001f1e26
:020993001f1e25
:020994001f1e24
:020995001f1e23
:020996001f1d23
:020997001f1d22
:020998001f1d21
:020999001f1d20
:02099a001f1d1f
:02099b001f1c1f
:02099c001f1c1e
:02099d001f1c1d
:02099e001f1c1c
:02099f001f1c1b
:0209a0001f1c1a
:0209a1001f1b1a
:0209a2001f1b19
:0209a3001f1b18
:0209a4001f1b17
:0209a5001f1b16
:0209a6001f1a16
:0209a7001f1a15
:0209a8001f1a14
:0209a9001f1a13
:0209aa001f1a12
:0209ab001f1912
:0209ac001f1911
:0209ad001f1910
:0209ae001f190f
:0209af001f190e
:0209b0001f190d
:0209b1001f180d
:0209b2001f180c
:0209b3001f180b
:0209b4001f180a
:0209b5001f1809
:0209b6001f1709
:0209b7001f1708
:0209b8001f1707
:0209b9001f1706
:0209ba001f1705
:0209bb001f1704
:0209bc001f1604
:0209bd001f1603
:0209be001f1602
:0209bf001f1601
:0209c0001f1600
:0209c1001f1500
:0209c2001f15ff
:0209c3001f15fe
:0209c4001f15fd
:0209c5001f15fc
:0209c6001f14fc
:0209c7001f14fb
:0209c8001f14fa
:0209c9001f14f9
:0209ca001f14f8
:0209cb001f14f7
:0209cc001f13f7
:0209cd001f13f6
:0209ce001f13f5
:0209cf001f13f4
:0209d0001f13f3
:0209d1001f12f3
:0209d2001f12f2
:0209d3001f12f1
:0209d4001f12f0
:0209d5001f12ef
:0209d6001f11ef
:0209d7001f11ee
:0209d8001f11ed
:0209d9001f11ec
:0209da001f11eb
:0209db001f11ea
:0209dc001f10ea
:0209dd001f10e9
:0209de001f10e8
:0209df001f10e7
:0209e0001f10e6
:0209e1001f0fe6
:0209e2001f0fe5
:0209e3001f0fe4
:0209e4001f0fe3
:0209e5001f0fe2
:0209e6001f0ee2
:0209e7001f0ee1
:0209e8001f0ee0
:0209e9001f0edf
:0209ea001f0ede
:0209eb001f0edd
:0209ec001f0ddd
:0209ed001f0ddc
:0209ee001f0ddb
:0209ef001f0dda
:0209f0001f0dd9
:0209f1001f0cd9
:0209f2001f0cd8
:0209f3001f0cd7
:0209f4001f0cd6
:0209f5001f0cd5
:0209f6001f0bd5
:0209f7001f0bd4
:0209f8001f0bd3
:0209f9001f0bd2
:0209fa001f0bd1
:0209fb001f0ad1
:0209fc001f0ad0
:0209fd001f0acf
:0209fe001f0ace
:0209ff001f0acd
:020a00001f0acb
:020a01001f09cb
:020a02001f09ca
:020a03001f09c9
:020a04001f09c8
:020a05001f09c7
:020a06001f08c7
:020a07001f08c6
:020a08001f08c5
:020a09001f08c4
:020a0a001f08c3
:020a0b001f07c3
:020a0c001f07c2
:020a0d001f07c1
:020a0e001f07c0
:020a0f001f07bf
:020a10001f06bf
:020a11001f06be
:020a12001f06bd
:020a13001f06bc
:020a14001f06bb
:020a15001f06ba
:020a16001f05ba
:020a17001f05b9
:020a18001f05b8
:020a19001f05b7
:020a1a001f05b6
:020a1b001f04b6
:020a1c001f04b5
:020a1d001f04b4
:020a1e001f04b3
:020a1f001f04b2
:020a20001f03b2
:020a21001f03b1
:020a22001f03b0
:020a23001f03af
:020a24001f03ae
:020a25001f02ae
:020a26001f02ad
:020a27001f02ac
:020a28001f02ab
:020a29001f02aa
:020a2a001f01aa
:020a2b001f01a9
:020a2c001f01a8
:020a2d001f01a7
:020a2e001f01a6
:020a2f001f00a6
:020a30001f00a5
:020a31001f00a4
:020a32001f00a3
:020a33001f00a2
:020a34001f00a1
:020a35001effa2
:020a36001effa1
:020a37001effa0
:020a38001eff9f
:020a39001eff9e
:020a3a001efe9e
:020a3b001efe9d
:020a3c001efe9c
:020a3d001efe9b
:020a3e001efe9a
:020a3f001efd9a
:020a40001efd99
:020a41001efd98
:020a42001efd97
:020a43001efd96
:020a44001efc96
:020a45001efc95
:020a46001efc94
:020a47001efc93
:020a48001efc92
:020a49001efb92
:020a4a001efb91
:020a4b001efb90
:020a4c001efb8f
:020a4d001efb8e
:020a4e001efa8e
:020a4f001efa8d
:020a50001efa8c
:020a51001efa8b
:020a52001efa8a
:020a53001ef98a
:020a54001ef989
:020a55001ef988
:020a56001ef987
:020a57001ef986
:020a58001ef886
:020a59001ef885
:020a5a001ef884
:020a5b001ef883
:020a5c001ef882
:020a5d001ef782
:020a5e001ef781
:020a5f001ef780
:020a60001ef77f
:020a61001ef77e
:020a62001ef67e
:020a63001ef67d
:020a64001ef67c
:020a65001ef67b
:020a66001ef67a
:020a67001ef57a
:020a68001ef579
:020a69001ef578
:020a6a001ef577
:020a6b001ef576
:020a6c001ef476
:020a6d001ef475
:020a6e001ef474
:020a6f001ef473
:020a70001ef472
:020a71001ef372
:020a72001ef371
:020a73001ef370
:020a74001ef36f
:020a75001ef36e
:020a76001ef36d
:020a77001ef26d
:020a78001ef26c
:020a79001ef26b
:020a7a001ef26a
:020a7b001ef269
:020a7c001ef169
:020a7d001ef168
:020a7e001ef167
:020a7f001ef166
:020a80001ef165
:020a81001ef065
:020a82001ef064
:020a83001ef063
:020a84001ef062
:020a85001ef061
:020a86001eef61
:020a87001eef60
:020a88001eef5f
:020a89001eef5e
:020a8a001eee5e
:020a8b001eee5d
:020a8c001eee5c
:020a8d001eee5b
:020a8e001eee5a
:020a8f001eed5a
:020a90001eed59
:020a91001eed58
:020a92001eed57
:020a93001eed56
:020a94001eec56
:020a95001eec55
:020a96001eec54
:020a97001eec53
:020a98001eec52
:020a99001eeb52
:020a9a001eeb51
:020a9b001eeb50
:020a9c001eeb4f
:020a9d001eeb4e
:020a9e001eea4e
:020a9f001eea4d
:020aa0001eea4c
:020aa1001eea4b
:020aa2001eea4a
:020aa3001ee94a
:020aa4001ee949
:020aa5001ee948
:020aa6001ee947
:020aa7001ee946
:020aa8001ee846
:020aa9001ee845
:020aaa001ee844
:020aab001ee843
:020aac001ee842
:020aad001ee742
:020aae001ee741
:020aaf001ee740
:020ab0001ee73f
:020ab1001ee73e
:020ab2001ee63e
:020ab3001ee63d
:020ab4001ee63c
:020ab5001ee63b
:020ab6001ee63a
:020ab7001ee53a
:020ab8001ee539
:020ab9001ee538
:020aba001ee537
:020abb001ee536
:020abc001ee436
:020abd001ee435
:020abe001ee434
:020abf001ee433
:020ac0001ee432
:020ac1001ee332
:020ac2001ee331
:020ac3001ee330
:020ac4001ee32f
:020ac5001ee32e
:020ac6001ee22e
:020ac7001ee22d
:020ac8001ee22c
:020ac9001ee22b
:020aca001ee12b
:020acb001ee12a
:020acc001ee129
:020acd001ee128
:020ace001ee127
:020acf001ee027
:020ad0001ee026
:020ad1001ee025
:020ad2001ee024
:020ad3001ee023
:020ad4001edf23
:020ad5001edf22
:020ad6001edf21
:020ad7001edf20
:020ad8001edf1f
:020ad9001ede1f
:020ada001ede1e
:020adb001ede1d
:020adc001ede1c
:020add001ede1b
:020ade001edd1b
:020adf001edd1a
:020ae0001edd19
:020ae1001edd18
:020ae2001edd17
:020ae3001edc17
:020ae4001edc16
:020ae5001edc15
:020ae6001edc14
:020ae7001edc13
:020ae8001edb13
:020ae9001edb12
:020aea001edb11
:020aeb001edb10
:020aec001eda10
:020aed001eda0f
:020aee001eda0e
:020aef001eda0d
:020af0001eda0c
:020af1001ed90c
:020af2001ed90b
:020af3001ed90a
:020af4001ed909
:020af5001ed908
:020af6001ed808
:020af7001ed807
:020af8001ed806
:020af9001ed805
:020afa001ed804
:020afb001ed704
:020afc001ed703
:020afd001ed702
:020afe001ed701
:020aff001ed601
:020b00001ed6ff
:020b01001ed6fe
:020b02001ed6fd
:020b03001ed6fc
:020b04001ed5fc
:020b05001ed5fb
:020b06001ed5fa
:020b07001ed5f9
:020b08001ed5f8
:020b09001ed4f8
:020b0a001ed4f7
:020b0b001ed4f6
:020b0c001ed4f5
:020b0d001ed4f4
:020b0e001ed3f4
:020b0f001ed3f3
:020b10001ed3f2
:020b11001ed3f1
:020b12001ed3f0
:020b13001ed2f0
:020b14001ed2ef
:020b15001ed2ee
:020b16001ed2ed
:020b17001ed1ed
:020b18001ed1ec
:020b19001ed1eb
:020b1a001ed1ea
:020b1b001ed1e9
:020b1c001ed0e9
:020b1d001ed0e8
:020b1e001ed0e7
:020b1f001ed0e6
:020b20001ed0e5
:020b21001ecfe5
:020b22001ecfe4
:020b23001ecfe3
:020b24001ecfe2
:020b25001ecee2
:020b26001ecee1
:020b27001ecee0
:020b28001ecedf
:020b29001ecede
:020b2a001ecdde
:020b2b001ecddd
:020b2c001ecddc
:020b2d001ecddb
:020b2e001ecdda
:020b2f001eccda
:020b30001eccd9
:020b31001eccd8
:020b32001eccd7
:020b33001eccd6
:020b34001ecbd6
:020b35001ecbd5
:020b36001ecbd4
:020b37001ecbd3
:020b38001ecad3
:020b39001ecad2
:020b3a001ecad1
:020b3b001ecad0
:020b3c001ecacf
:020b3d001ec9cf
:020b3e001ec9ce
:020b3f001ec9cd
:020b40001ec9cc
:020b41001ec9cb
:020b42001ec8cb
:020b43001ec8ca
:020b44001ec8c9
:020b45001ec8c8
:020b46001ec7c8
:020b47001ec7c7
:020b48001ec7c6
:020b49001ec7c5
:020b4a001ec7c4
:020b4b001ec6c4
:020b4c001ec6c3
:020b4d001ec6c2
:020b4e001ec6c1
:020b4f001ec6c0
:020b50001ec5c0
:020b51001ec5bf
:020b52001ec5be
:020b53001ec5bd
:020b54001ec4bd
:020b55001ec4bc
:020b56001ec4bb
:020b57001ec4ba
:020b58001ec4b9
:020b59001ec3b9
:020b5a001ec3b8
:020b5b001ec3b7
:020b5c001ec3b6
:020b5d001ec2b6
:020b5e001ec2b5
:020b5f001ec2b4
:020b60001ec2b3
:020b61001ec2b2
:020b62001ec1b2
:020b63001ec1b1
:020b64001ec1b0
:020b65001ec1af
:020b66001ec1ae
:020b67001ec0ae
:020b68001ec0ad
:020b69001ec0ac
:020b6a001ec0ab
:020b6b001ebfab
:020b6c001ebfaa
:020b6d001ebfa9
:020b6e001ebfa8
:020b6f001ebfa7
:020b70001ebea7
:020b71001ebea6
:020b72001ebea5
:020b73001ebea4
:020b74001ebea3
:020b75001ebda3
:020b76001ebda2
:020b77001ebda1
:020b78001ebda0
:020b79001ebca0
:020b7a001ebc9f
:020b7b001ebc9e
:020b7c001ebc9d
:020b7d001ebc9c
:020b7e001ebb9c
:020b7f001ebb9b
:020b80001ebb9a
:020b81001ebb99
:020b82001eba99
:020b83001eba98
:020b84001eba97
:020b85001eba96
:020b86001eba95
:020b87001eb995
:020b88001eb994
:020b89001eb993
:020b8a001eb992
:020b8b001eb892
:020b8c001eb891
:020b8d001eb890
:020b8e001eb88f
:020b8f001eb88e
:020b90001eb78e
:020b91001eb78d
:020b92001eb78c
:020b93001eb78b
:020b94001eb68b
:020b95001eb68a
:020b96001eb689
:020b97001eb688
:020b98001eb687
:020b99001eb587
:020b9a001eb586
:020b9b001eb585
:020b9c001eb584
:020b9d001eb583
:020b9e001eb483
:020b9f001eb482
:020ba0001eb481
:020ba1001eb480
:020ba2001eb380
:020ba3001eb37f
:020ba4001eb37e
:020ba5001eb37d
:020ba6001eb37c
:020ba7001eb27c
:020ba8001eb27b
:020ba9001eb27a
:020baa001eb279
:020bab001eb179
:020bac001eb178
:020bad001eb177
:020bae001eb176
:020baf001eb175
:020bb0001eb075
:020bb1001eb074
:020bb2001eb073
:020bb3001eb072
:020bb4001eaf72
:020bb5001eaf71
:020bb6001eaf70
:020bb7001eaf6f
:020bb8001eaf6e
:020bb9001eae6e
:020bba001eae6d
:020bbb001eae6c
:020bbc001eae6b
:020bbd001ead6b
:020bbe001ead6a
:020bbf001ead69
:020bc0001ead68
:020bc1001ead67
:020bc2001eac67
:020bc3001eac66
:020bc4001eac65
:020bc5001eac64
:020bc6001eab64
:020bc7001eab63
:020bc8001eab62
:020bc9001eab61
:020bca001eab60
:020bcb001eaa60
:020bcc001eaa5f
:020bcd001eaa5e
:020bce001eaa5d
:020bcf001ea95d
:020bd0001ea95c
:020bd1001ea95b
:020bd2001ea95a
:020bd3001ea85a
:020bd4001ea859
:020bd5001ea858
:020bd6001ea857
:020bd7001ea856
:020bd8001ea756
:020bd9001ea755
:020bda001ea754
:020bdb001ea753
:020bdc001ea653
:020bdd001ea652
:020bde001ea651
:020bdf001ea650
:020be0001ea64f
:020be1001ea54f
:020be2001ea54e
:020be3001ea54d
:020be4001ea54c
:020be5001ea44c
:020be6001ea44b
:020be7001ea44a
:020be8001ea449
:020be9001ea448
:020bea001ea348
:020beb001ea347
:020bec001ea346
:020bed001ea345
:020bee001ea245
:020bef001ea244
:020bf0001ea243
:020bf1001ea242
:020bf2001ea142
:020bf3001ea141
:020bf4001ea140
:020bf5001ea13f
:020bf6001ea13e
:020bf7001ea03e
:020bf8001ea03d
:020bf9001ea03c
:020bfa001ea03b
:020bfb001e9f3b
:020bfc001e9f3a
:020bfd001e9f39
:020bfe001e9f38
:020bff001e9f37
:020c00001e9e36
:020c01001e9e35
:020c02001e9e34
:020c03001e9e33
:020c04001e9d33
:020c05001e9d32
:020c06001e9d31
:020c07001e9d30
:020c08001e9c30
:020c09001e9c2f
:020c0a001e9c2e
:020c0b001e9c2d
:020c0c001e9c2c
:020c0d001e9b2c
:020c0e001e9b2b
:020c0f001e9b2a
:020c10001e9b29
:020c11001e9a29
:020c12001e9a28
:020c13001e9a27
:020c14001e9a26
:020c15001e9926
:020c16001e9925
:020c17001e9924
:020c18001e9923
:020c19001e9922
:020c1a001e9822
:020c1b001e9821
:020c1c001e9820
:020c1d001e981f
:020c1e001e971f
:020c1f001e971e
:020c20001e971d
:020c21001e971c
:020c22001e971b
:020c23001e961b
:020c24001e961a
:020c25001e9619
:020c26001e9618
:020c27001e9518
:020c28001e9517
:020c29001e9516
:020c2a001e9515
:020c2b001e9415
:020c2c001e9414
:020c2d001e9413
:020c2e001e9412
:020c2f001e9411
:020c30001e9311
:020c31001e9310
:020c32001e930f
:020c33001e930e
:020c34001e920e
:020c35001e920d
:020c36001e920c
:020c37001e920b
:020c38001e910b
:020c39001e910a
:020c3a001e9109
:020c3b001e9108
:020c3c001e9008
:020c3d001e9007
:020c3e001e9006
:020c3f001e9005
:020c40001e9004
:020c41001e8f04
:020c42001e8f03
:020c43001e8f02
:020c44001e8f01
:020c45001e8e01
:020c46001e8e00
:020c47001e8eff
:020c48001e8efe
:020c49001e8dfe
:020c4a001e8dfd
:020c4b001e8dfc
:020c4c001e8dfb
:020c4d001e8dfa
:020c4e001e8cfa
:020c4f001e8cf9
:020c50001e8cf8
:020c51001e8cf7
:020c52001e8bf7
:020c53001e8bf6
:020c54001e8bf5
:020c55001e8bf4
:020c56001e8af4
:020c57001e8af3
:020c58001e8af2
:020c59001e8af1
:020c5a001e89f1
:020c5b001e89f0
:020c5c001e89ef
:020c5d001e89ee
:020c5e001e89ed
:020c5f001e88ed
:020c60001e88ec
:020c61001e88eb
:020c62001e88ea
:020c63001e87ea
:020c64001e87e9
:020c65001e87e8
:020c66001e87e7
:020c67001e86e7
:020c68001e86e6
:020c69001e86e5
:020c6a001e86e4
:020c6b001e85e4
:020c6c001e85e3
:020c6d001e85e2
:020c6e001e85e1
:020c6f001e85e0
:020c70001e84e0
:020c71001e84df
:020c72001e84de
:020c73001e84dd
:020c74001e83dd
:020c75001e83dc
:020c76001e83db
:020c77001e83da
:020c78001e82da
:020c79001e82d9
:020c7a001e82d8
:020c7b001e82d7
:020c7c001e81d7
:020c7d001e81d6
:020c7e001e81d5
:020c7f001e81d4
:020c80001e81d3
:020c81001e80d3
:020c82001e80d2
:020c83001e80d1
:020c84001e80d0
:020c85001e7fd0
:020c86001e7fcf
:020c87001e7fce
:020c88001e7fcd
:020c89001e7ecd
:020c8a001e7ecc
:020c8b001e7ecb
:020c8c001e7eca
:020c8d001e7dca
:020c8e001e7dc9
:020c8f001e7dc8
:020c90001e7dc7
:020c91001e7cc7
:020c92001e7cc6
:020c93001e7cc5
:020c94001e7cc4
:020c95001e7cc3
:020c96001e7bc3
:020c97001e7bc2
:020c98001e7bc1
:020c99001e7bc0
:020c9a001e7ac0
:020c9b001e7abf
:020c9c001e7abe
:020c9d001e7abd
:020c9e001e79bd
:020c9f001e79bc
:020ca0001e79bb
:020ca1001e79ba
:020ca2001e78ba
:020ca3001e78b9
:020ca4001e78b8
:020ca5001e78b7
:020ca6001e77b7
:020ca7001e77b6
:020ca8001e77b5
:020ca9001e77b4
:020caa001e77b3
:020cab001e76b3
:020cac001e76b2
:020cad001e76b1
:020cae001e76b0
:020caf001e75b0
:020cb0001e75af
:020cb1001e75ae
:020cb2001e75ad
:020cb3001e74ad
:020cb4001e74ac
:020cb5001e74ab
:020cb6001e74aa
:020cb7001e73aa
:020cb8001e73a9
:020cb9001e73a8
:020cba001e73a7
:020cbb001e72a7
:020cbc001e72a6
:020cbd001e72a5
:020cbe001e72a4
:020cbf001e71a4
:020cc0001e71a3
:020cc1001e71a2
:020cc2001e71a1
:020cc3001e70a1
:020cc4001e70a0
:020cc5001e709f
:020cc6001e709e
:020cc7001e709d
:020cc8001e6f9d
:020cc9001e6f9c
:020cca001e6f9b
:020ccb001e6f9a
:020ccc001e6e9a
:020ccd001e6e99
:020cce001e6e98
:020ccf001e6e97
:020cd0001e6d97
:020cd1001e6d96
:020cd2001e6d95
:020cd3001e6d94
:020cd4001e6c94
:020cd5001e6c93
:020cd6001e6c92
:020cd7001e6c91
:020cd8001e6b91
:020cd9001e6b90
:020cda001e6b8f
:020cdb001e6b8e
:020cdc001e6a8e
:020cdd001e6a8d
:020cde001e6a8c
:020cdf001e6a8b
:020ce0001e698b
:020ce1001e698a
:020ce2001e6989
:020ce3001e6988
:020ce4001e6888
:020ce5001e6887
:020ce6001e6886
:020ce7001e6885
:020ce8001e6785
:020ce9001e6784
:020cea001e6783
:020ceb001e6782
:020cec001e6682
:020ced001e6681
:020cee001e6680
:020cef001e667f
:020cf0001e667e
:020cf1001e657e
:020cf2001e657d
:020cf3001e657c
:020cf4001e657b
:020cf5001e647b
:020cf6001e647a
:020cf7001e6479
:020cf8001e6478
:020cf9001e6378
:020cfa001e6377
:020cfb001e6376
:020cfc001e6375
:020cfd001e6275
:020cfe001e6274
:020cff001e6273
:020d00001e6271
:020d01001e6171
:020d02001e6170
:020d03001e616f
:020d04001e616e
:020d05001e606e
:020d06001e606d
:020d07001e606c
:020d08001e606b
:020d09001e5f6b
:020d0a001e5f6a
:020d0b001e5f69
:020d0c001e5f68
:020d0d001e5e68
:020d0e001e5e67
:020d0f001e5e66
:020d10001e5e65
:020d11001e5d65
:020d12001e5d64
:020d13001e5d63
:020d14001e5d62
:020d15001e5c62
:020d16001e5c61
:020d17001e5c60
:020d18001e5c5f
:020d19001e5b5f
:020d1a001e5b5e
:020d1b001e5b5d
:020d1c001e5b5c
:020d1d001e5a5c
:020d1e001e5a5b
:020d1f001e5a5a
:020d20001e5a59
:020d21001e5959
:020d22001e5958
:020d23001e5957
:020d24001e5956
:020d25001e5856
:020d26001e5855
:020d27001e5854
:020d28001e5853
:020d29001e5753
:020d2a001e5752
:020d2b001e5751
:020d2c001e5750
:020d2d001e5650
:020d2e001e564f
:020d2f001e564e
:020d30001e564d
:020d31001e554d
:020d32001e554c
:020d33001e554b
:020d34001e554a
:020d35001e544a
:020d36001e5449
:020d37001e5448
:020d38001e5447
:020d39001e5347
:020d3a001e5346
:020d3b001e5345
:020d3c001e5344
:020d3d001e5244
:020d3e001e5243
:020d3f001e5242
:020d40001e5241
:020d41001e5141
:020d42001e5140
:020d43001e513f
:020d44001e513e
:020d45001e503e
:020d46001e503d
:020d47001e503c
:020d48001e503b
:020d49001e4f3b
:020d4a001e4f3a
:020d4b001e4f39
:020d4c001e4f38
:020d4d001e4e38
:020d4e001e4e37
:020d4f001e4e36
:020d50001e4e35
:020d51001e4d35
:020d52001e4d34
:020d53001e4d33
:020d54001e4d32
:020d55001e4c32
:020d56001e4c31
:020d57001e4c30
:020d58001e4c2f
:020d59001e4b2f
:020d5a001e4b2e
:020d5b001e4b2d
:020d5c001e4b2c
:020d5d001e4a2c
:020d5e001e4a2b
:020d5f001e4a2a
:020d60001e4a29
:020d61001e4929
:020d62001e4928
:020d63001e4927
:020d64001e4926
:020d65001e4826
:020d66001e4825
:020d67001e4824
:020d68001e4823
:020d69001e4723
:020d6a001e4722
:020d6b001e4721
:020d6c001e4720
:020d6d001e4620
:020d6e001e461f
:020d6f001e461e
:020d70001e461d
:020d71001e451d
:020d72001e451c
:020d73001e451b
:020d74001e451a
:020d75001e441a
:020d76001e4419
:020d77001e4418
:020d78001e4417
:020d79001e4317
:020d7a001e4316
:020d7b001e4315
:020d7c001e4215
:020d7d001e4214
:020d7e001e4213
:020d7f001e4212
:020d80001e4112
:020d81001e4111
:020d82001e4110
:020d83001e410f
:020d84001e400f
:020d85001e400e
:020d86001e400d
:020d87001e400c
:020d88001e3f0c
:020d89001e3f0b
:020d8a001e3f0a
:020d8b001e3f09
:020d8c001e3e09
:020d8d001e3e08
:020d8e001e3e07
:020d8f001e3e06
:020d90001e3d06
:020d91001e3d05
:020d92001e3d04
:020d93001e3d03
:020d94001e3c03
:020d95001e3c02
:020d96001e3c01
:020d97001e3c00
:020d98001e3b00
:020d99001e3bff
:020d9a001e3bfe
:020d9b001e3bfd
:020d9c001e3afd
:020d9d001e3afc
:020d9e001e3afb
:020d9f001e3afa
:020da0001e39fa
:020da1001e39f9
:020da2001e39f8
:020da3001e38f8
:020da4001e38f7
:020da5001e38f6
:020da6001e38f5
:020da7001e37f5
:020da8001e37f4
:020da9001e37f3
:020daa001e37f2
:020dab001e36f2
:020dac001e36f1
:020dad001e36f0
:020dae001e36ef
:020daf001e35ef
:020db0001e35ee
:020db1001e35ed
:020db2001e35ec
:020db3001e34ec
:020db4001e34eb
:020db5001e34ea
:020db6001e34e9
:020db7001e33e9
:020db8001e33e8
:020db9001e33e7
:020dba001e33e6
:020dbb001e32e6
:020dbc001e32e5
:020dbd001e32e4
:020dbe001e31e4
:020dbf001e31e3
:020dc0001e31e2
:020dc1001e31e1
:020dc2001e30e1
:020dc3001e30e0
:020dc4001e30df
:020dc5001e30de
:020dc6001e2fde
:020dc7001e2fdd
:020dc8001e2fdc
:020dc9001e2fdb
:020dca001e2edb
:020dcb001e2eda
:020dcc001e2ed9
:020dcd001e2ed8
:020dce001e2dd8
:020dcf001e2dd7
:020dd0001e2dd6
:020dd1001e2dd5
:020dd2001e2cd5
:020dd3001e2cd4
:020dd4001e2cd3
:020dd5001e2bd3
:020dd6001e2bd2
:020dd7001e2bd1
:020dd8001e2bd0
:020dd9001e2ad0
:020dda001e2acf
:020ddb001e2ace
:020ddc001e2acd
:020ddd001e29cd
:020dde001e29cc
:020ddf001e29cb
:020de0001e29ca
:020de1001e28ca
:020de2001e28c9
:020de3001e28c8
:020de4001e28c7
:020de5001e27c7
:020de6001e27c6
:020de7001e27c5
:020de8001e27c4
:020de9001e26c4
:020dea001e26c3
:020deb001e26c2
:020dec001e25c2
:020ded001e25c1
:020dee001e25c0
:020def001e25bf
:020df0001e24bf
:020df1001e24be
:020df2001e24bd
:020df3001e24bc
:020df4001e23bc
:020df5001e23bb
:020df6001e23ba
:020df7001e23b9
:020df8001e22b9
:020df9001e22b8
:020dfa001e22b7
:020dfb001e22b6
:020dfc001e21b6
:020dfd001e21b5
:020dfe001e21b4
:020dff001e20b4
:020e00001e20b2
:020e01001e20b1
:020e02001e20b0
:020e03001e1fb0
:020e04001e1faf
:020e05001e1fae
:020e06001e1fad
:020e07001e1ead
:020e08001e1eac
:020e09001e1eab
:020e0a001e1eaa
:020e0b001e1daa
:020e0c001e1da9
:020e0d001e1da8
:020e0e001e1ca8
:020e0f001e1ca7
:020e10001e1ca6
:020e11001e1ca5
:020e12001e1ba5
:020e13001e1ba4
:020e14001e1ba3
:020e15001e1ba2
:020e16001e1aa2
:020e17001e1aa1
:020e18001e1aa0
:020e19001e1a9f
:020e1a001e199f
:020e1b001e199e
:020e1c001e199d
:020e1d001e189d
:020e1e001e189c
:020e1f001e189b
:020e20001e189a
:020e21001e179a
:020e22001e1799
:020e23001e1798
:020e24001e1797
:020e25001e1697
:020e26001e1696
:020e27001e1695
:020e28001e1694
:020e29001e1594
:020e2a001e1593
:020e2b001e1592
:020e2c001e1492
:020e2d001e1491
:020e2e001e1490
:020e2f001e148f
:020e30001e138f
:020e31001e138e
:020e32001e138d
:020e33001e138c
:020e34001e128c
:020e35001e128b
:020e36001e128a
:020e37001e1289
:020e38001e1189
:020e39001e1188
:020e3a001e1187
:020e3b001e1087
:020e3c001e1086
:020e3d001e1085
:020e3e001e1084
:020e3f001e0f84
:020e40001e0f83
:020e41001e0f82
:020e42001e0f81
:020e43001e0e81
:020e44001e0e80
:020e45001e0e7f
:020e46001e0d7f
:020e47001e0d7e
:020e48001e0d7d
:020e49001e0d7c
:020e4a001e0c7c
:020e4b001e0c7b
:020e4c001e0c7a
:020e4d001e0c79
:020e4e001e0b79
:020e4f001e0b78
:020e50001e0b77
:020e51001e0b76
:020e52001e0a76
:020e53001e0a75
:020e54001e0a74
:020e55001e0974
:020e56001e0973
:020e57001e0972
:020e58001e0971
:020e59001e0871
:020e5a001e0870
:020e5b001e086f
:020e5c001e086e
:020e5d001e076e
:020e5e001e076d
:020e5f001e076c
:020e60001e066c
:020e61001e066b
:020e62001e066a
:020e63001e0669
:020e64001e0569
:020e65001e0568
:020e66001e0567
:020e67001e0566
:020e68001e0466
:020e69001e0465
:020e6a001e0464
:020e6b001e0364
:020e6c001e0363
:020e6d001e0362
:020e6e001e0361
:020e6f001e0261
:020e70001e0260
:020e71001e025f
:020e72001e025e
:020e73001e015e
:020e74001e015d
:020e75001e015c
:020e76001e005c
:020e77001e005b
:020e78001e005a
:020e79001e0059
:020e7a001dff5a
:020e7b001dff59
:020e7c001dff58
:020e7d001dff57
:020e7e001dfe57
:020e7f001dfe56
:020e80001dfe55
:020e81001dfd55
:020e82001dfd54
:020e83001dfd53
:020e84001dfd52
:020e85001dfc52
:020e86001dfc51
:020e87001dfc50
:020e88001dfc4f
:020e89001dfb4f
:020e8a001dfb4e
:020e8b001dfb4d
:020e8c001dfa4d
:020e8d001dfa4c
:020e8e001dfa4b
:020e8f001dfa4a
:020e90001df94a
:020e91001df949
:020e92001df948
:020e93001df947
:020e94001df847
:020e95001df846
:020e96001df845
:020e97001df745
:020e98001df744
:020e99001df743
:020e9a001df742
:020e9b001df642
:020e9c001df641
:020e9d001df640
:020e9e001df63f
:020e9f001df53f
:020ea0001df53e
:020ea1001df53d
:020ea2001df43d
:020ea3001df43c
:020ea4001df43b
:020ea5001df43a
:020ea6001df33a
:020ea7001df339
:020ea8001df338
:020ea9001df238
:020eaa001df237
:020eab001df236
:020eac001df235
:020ead001df135
:020eae001df134
:020eaf001df133
:020eb0001df132
:020eb1001df032
:020eb2001df031
:020eb3001df030
:020eb4001def30
:020eb5001def2f
:020eb6001def2e
:020eb7001def2d
:020eb8001dee2d
:020eb9001dee2c
:020eba001dee2b
:020ebb001ded2b
:020ebc001ded2a
:020ebd001ded29
:020ebe001ded28
:020ebf001dec28
:020ec0001dec27
:020ec1001dec26
:020ec2001dec25
:020ec3001deb25
:020ec4001deb24
:020ec5001deb23
:020ec6001dea23
:020ec7001dea22
:020ec8001dea21
:020ec9001dea20
:020eca001de920
:020ecb001de91f
:020ecc001de91e
:020ecd001de81e
:020ece001de81d
:020ecf001de81c
:020ed0001de81b
:020ed1001de71b
:020ed2001de71a
:020ed3001de719
:020ed4001de718
:020ed5001de618
:020ed6001de617
:020ed7001de616
:020ed8001de516
:020ed9001de515
:020eda001de514
:020edb001de513
:020edc001de413
:020edd001de412
:020ede001de411
:020edf001de311
:020ee0001de310
:020ee1001de30f
:020ee2001de30e
:020ee3001de20e
:020ee4001de20d
:020ee5001de20c
:020ee6001de10c
:020ee7001de10b
:020ee8001de10a
:020ee9001de109
:020eea001de009
:020eeb001de008
:020eec001de007
:020eed001de006
:020eee001ddf06
:020eef001ddf05
:020ef0001ddf04
:020ef1001dde04
:020ef2001dde03
:020ef3001dde02
:020ef4001dde01
:020ef5001ddd01
:020ef6001ddd00
:020ef7001dddff
:020ef8001ddcff
:020ef9001ddcfe
:020efa001ddcfd
:020efb001ddcfc
:020efc001ddbfc
:020efd001ddbfb
:020efe001ddbfa
:020eff001ddafa
:020f00001ddaf8
:020f01001ddaf7
:020f02001ddaf6
:020f03001dd9f6
:020f04001dd9f5
:020f05001dd9f4
:020f06001dd8f4
:020f07001dd8f3
:020f08001dd8f2
:020f09001dd8f1
:020f0a001dd7f1
:020f0b001dd7f0
:020f0c001dd7ef
:020f0d001dd6ef
:020f0e001dd6ee
:020f0f001dd6ed
:020f10001dd6ec
:020f11001dd5ec
:020f12001dd5eb
:020f13001dd5ea
:020f14001dd4ea
:020f15001dd4e9
:020f16001dd4e8
:020f17001dd4e7
:020f18001dd3e7
:020f19001dd3e6
:020f1a001dd3e5
:020f1b001dd2e5
:020f1c001dd2e4
:020f1d001dd2e3
:020f1e001dd2e2
:020f1f001dd1e2
:020f20001dd1e1
:020f21001dd1e0
:020f22001dd0e0
:020f23001dd0df
:020f24001dd0de
:020f25001dd0dd
:020f26001dcfdd
:020f27001dcfdc
:020f28001dcfdb
:020f29001dcedb
:020f2a001dceda
:020f2b001dced9
:020f2c001dced8
:020f2d001dcdd8
:020f2e001dcdd7
:020f2f001dcdd6
:020f30001dccd6
:020f31001dccd5
:020f32001dccd4
:020f33001dccd3
:020f34001dcbd3
:020f35001dcbd2
:020f36001dcbd1
:020f37001dcad1
:020f38001dcad0
:020f39001dcacf
:020f3a001dcace
:020f3b001dc9ce
:020f3c001dc9cd
:020f3d001dc9cc
:020f3e001dc8cc
:020f3f001dc8cb
:020f40001dc8ca
:020f41001dc8c9
:020f42001dc7c9
:020f43001dc7c8
:020f44001dc7c7
:020f45001dc6c7
:020f46001dc6c6
:020f47001dc6c5
:020f48001dc6c4
:020f49001dc5c4
:020f4a001dc5c3
:020f4b001dc5c2
:020f4c001dc4c2
:020f4d001dc4c1
:020f4e001dc4c0
:020f4f001dc4bf
:020f50001dc3bf
:020f51001dc3be
:020f52001dc3bd
:020f53001dc2bd
:020f54001dc2bc
:020f55001dc2bb
:020f56001dc2ba
:020f57001dc1ba
:020f58001dc1b9
:020f59001dc1b8
:020f5a001dc0b8
:020f5b001dc0b7
:020f5c001dc0b6
:020f5d001dc0b5
:020f5e001dbfb5
:020f5f001dbfb4
:020f60001dbfb3
:020f61001dbeb3
:020f62001dbeb2
:020f63001dbeb1
:020f64001dbeb0
:020f65001dbdb0
:020f66001dbdaf
:020f67001dbdae
:020f68001dbcae
:020f69001dbcad
:020f6a001dbcac
:020f6b001dbcab
:020f6c001dbbab
:020f6d001dbbaa
:020f6e001dbba9
:020f6f001dbaa9
:020f70001dbaa8
:020f71001dbaa7
:020f72001db9a7
:020f73001db9a6
:020f74001db9a5
:020f75001db9a4
:020f76001db8a4
:020f77001db8a3
:020f78001db8a2
:020f79001db7a2
:020f7a001db7a1
:020f7b001db7a0
:020f7c001db79f
:020f7d001db69f
:020f7e001db69e
:020f7f001db69d
:020f80001db59d
:020f81001db59c
:020f82001db59b
:020f83001db59a
:020f84001db49a
:020f85001db499
:020f86001db498
:020f87001db398
:020f88001db397
:020f89001db396
:020f8a001db296
:020f8b001db295
:020f8c001db294
:020f8d001db293
:020f8e001db193
:020f8f001db192
:020f90001db191
:020f91001db091
:020f92001db090
:020f93001db08f
:020f94001db08e
:020f95001daf8e
:020f96001daf8d
:020f97001daf8c
:020f98001dae8c
:020f99001dae8b
:020f9a001dae8a
:020f9b001dad8a
:020f9c001dad89
:020f9d001dad88
:020f9e001dad87
:020f9f001dac87
