:020000000000fe
:0200010000c934
:02000200019269
:02000300025b9e
:020004000323d4
:0200050003eb0b
:0200060004b242
:0200070005787a
:02000800063eb2
:020009000703eb
:02000a0007c627
:02000b00088962
:02000c00094a9f
:02000d000a09de
:02000e000ac71f
:02000f000b8460
:020010000c3fa3
:020011000cf7ea
:020012000dae31
:020013000e637a
:020014000f15c6
:020015000fc515
:02001600107365
:02001700111eb8
:0200180011c70e
:02001900126c67
:02001a00130fc2
:02001b0013af21
:02001c00144c82
:02001d0014e6e7
:02001e00157d4e
:02001f001610b9
:0200200016a028
:02002100172c9a
:0200220017b510
:02002300183a89
:0200240018bc06
:02002500193987
:0200260019b30c
:020027001a2994
:020028001a9b21
:020029001b08b2
:02002a001b7247
:02002b001bd7e1
:02002c001c387e
:02002d001c9421
:02002e001cedc7
:02002f001d4072
:020030001d8f22
:020031001ddad6
:020032001e208e
:020033001e624b
:020034001e9e0e
:020035001ed6d5
:020036001f0a9f
:020037001f3870
:020038001f6245
:020039001f8620
:02003a001fa6ff
:02003b001fc1e3
:02003c001fd8cb
:02003d001fe9b9
:02003e001ff5ac
:02003f001ffda3
:020040001fffa0
:020041001ffda1
:020042001ff5a8
:020043001fe9b3
:020044001fd8c3
:020045001fc1d9
:020046001fa6f3
:020047001f8612
:020048001f6235
:020049001f385e
:02004a001f0a8b
:02004b001ed6bf
:02004c001e9ef6
:02004d001e6231
:02004e001e2072
:02004f001ddab8
:020050001d8f02
:020051001d4050
:020052001ceda3
:020053001c94fb
:020054001c3856
:020055001bd7b7
:020056001b721b
:020057001b0884
:020058001a9bf1
:020059001a2962
:02005a0019b3d8
:02005b00193951
:02005c0018bcce
:02005d00183a4f
:02005e0017b5d4
:02005f00172c5c
:0200600016a0e8
:02006100161077
:02006200157d0a
:0200630014e6a1
:02006400144c3a
:0200650013afd7
:02006600130f76
:02006700126c19
:0200680011c7be
:02006900111e66
:02006a00107311
:02006b000fc5bf
:02006c000f156e
:02006d000e6320
:02006e000daed5
:02006f000cf78c
:020070000c3f43
:020071000b84fe
:020072000ac7bb
:020073000a0978
:02007400094a37
:020075000889f8
:0200760007c6bb
:0200770007037d
:02007800063e42
:02007900057808
:02007a0004b2ce
:02007b0003eb95
:02007c0003235c
:02007d00025b24
:02007e000192ed
:02007f0000c9b6
:0200800000007e
:020081003f3707
:020082003e6ed0
:020083003da599
:020084003cdd61
:020085003c1528
:020086003b4eef
:020087003a88b5
:0200880039c27b
:0200890038fd40
:02008a00383a02
:02008b003777c5
:02008c0036b686
:02008d0035f745
:02008e00353902
:02008f00347cbf
:0200900033c17a
:02009100330931
:020092003252e8
:02009300319d9d
:0200940030eb4f
:02009500303bfe
:020096002f8dac
:020097002ee257
:020098002e39ff
:020099002d94a4
:02009a002cf147
:02009b002c51e6
:02009c002bb483
:02009d002b1a1c
:02009e002a83b3
:02009f0029f046
:0200a0002960d5
:0200a10028d461
:0200a200284be9
:0200a30027c66e
:0200a4002744ef
:0200a50026c76c
:0200a600264de5
:0200a70025d75b
:0200a8002565cc
:0200a90024f839
:0200aa00248ea2
:0200ab00242906
:0200ac0023c867
:0200ad00236cc2
:0200ae0023131a
:0200af0022c06d
:0200b0002271bb
:0200b100222605
:0200b20021e04b
:0200b300219e8c
:0200b4002162c7
:0200b500212afe
:0200b60020f632
:0200b70020c85f
:0200b800209e88
:0200b900207aab
:0200ba00205aca
:0200bb00203fe4
:0200bc002028fa
:0200bd0020170a
:0200be00200b15
:0200bf0020031c
:0200c00020011d
:0200c10020031a
:0200c200200b11
:0200c300201704
:0200c4002028f2
:0200c500203fda
:0200c600205abe
:0200c700207a9d
:0200c800209e78
:0200c90020c84d
:0200ca0020f61e
:0200cb00212ae8
:0200cc002162af
:0200cd00219e72
:0200ce0021e02f
:0200cf002226e7
:0200d00022719b
:0200d10022c04b
:0200d2002313f6
:0200d300236c9c
:0200d40023c83f
:0200d5002429dc
:0200d600248e76
:0200d70024f80b
:0200d80025659c
:0200d90025d729
:0200da00264db1
:0200db0026c736
:0200dc002744b7
:0200dd0027c634
:0200de00284bad
:0200df0028d423
:0200e000296095
:0200e10029f004
:0200e2002a836f
:0200e3002b1ad6
:0200e4002bb43b
:0200e5002c519c
:0200e6002cf1fb
:0200e7002d9456
:0200e8002e39af
:0200e9002ee205
:0200ea002f8d58
:0200eb00303ba8
:0200ec0030ebf7
:0200ed00319d43
:0200ee0032528c
:0200ef003309d3
:0200f00033c11a
:0200f100347c5d
:0200f20035399e
:0200f30035f7df
:0200f40036b61e
:0200f50037775b
:0200f600383a96
:0200f70038fdd2
:0200f80039c20b
:0200f9003a8843
:0200fa003b4e7b
:0200fb003c15b2
:0200fc003cdde9
:0200fd003da51f
:0200fe003e6e54
:0200ff003f3789
:00000001FF
