:020000001fffe0
:020001001fffdf
:020002001fffde
:020003001fffdd
:020004001fffdc
:020005001fffdb
:020006001fffda
:020007001fffd9
:020008001fffd8
:020009001fffd7
:02000a001fffd6
:02000b001fffd5
:02000c001fffd4
:02000d001fffd3
:02000e001fffd2
:02000f001fffd1
:020010001fffd0
:020011001fffcf
:020012001fffce
:020013001fffcd
:020014001fffcc
:020015001fffcb
:020016001fffca
:020017001fffc9
:020018001fffc8
:020019001fffc7
:02001a001fffc6
:02001b001fffc5
:02001c001fffc4
:02001d001fffc3
:02001e001fffc2
:02001f001fffc1
:020020001fffc0
:020021001fffbf
:020022001fffbe
:020023001fffbd
:020024001fffbc
:020025001fffbb
:020026001fffba
:020027001fffb9
:020028001fffb8
:020029001fffb7
:02002a001fffb6
:02002b001fffb5
:02002c001fffb4
:02002d001fffb3
:02002e001fffb2
:02002f001fffb1
:020030001fffb0
:020031001fffaf
:020032001fffae
:020033001fffad
:020034001fffac
:020035001fffab
:020036001fffaa
:020037001fffa9
:020038001fffa8
:020039001fffa7
:02003a001fffa6
:02003b001fffa5
:02003c001fffa4
:02003d001fffa3
:02003e001fffa2
:02003f001fffa1
:020040001fffa0
:020041001fff9f
:020042001fff9e
:020043001fff9d
:020044001fff9c
:020045001fff9b
:020046001fff9a
:020047001fff99
:020048001fff98
:020049001fff97
:02004a001fff96
:02004b001fff95
:02004c001fff94
:02004d001fff93
:02004e001fff92
:02004f001fff91
:020050001fff90
:020051001fff8f
:020052001fff8e
:020053001fff8d
:020054001fff8c
:020055001fff8b
:020056001fff8a
:020057001fff89
:020058001fff88
:020059001fff87
:02005a001fff86
:02005b001fff85
:02005c001fff84
:02005d001fff83
:02005e001fff82
:02005f001fff81
:020060001fff80
:020061001fff7f
:020062001fff7e
:020063001fff7d
:020064001fff7c
:020065001fff7b
:020066001fff7a
:020067001fff79
:020068001fff78
:020069001fff77
:02006a001fff76
:02006b001fff75
:02006c001fff74
:02006d001fff73
:02006e001fff72
:02006f001fff71
:020070001fff70
:020071001fff6f
:020072001fff6e
:020073001fff6d
:020074001ffe6d
:020075001ffe6c
:020076001ffe6b
:020077001ffe6a
:020078001ffe69
:020079001ffe68
:02007a001ffe67
:02007b001ffe66
:02007c001ffe65
:02007d001ffe64
:02007e001ffe63
:02007f001ffe62
:020080001ffe61
:020081001ffe60
:020082001ffe5f
:020083001ffe5e
:020084001ffe5d
:020085001ffe5c
:020086001ffe5b
:020087001ffe5a
:020088001ffe59
:020089001ffe58
:02008a001ffe57
:02008b001ffe56
:02008c001ffe55
:02008d001ffe54
:02008e001ffe53
:02008f001ffe52
:020090001ffe51
:020091001ffe50
:020092001ffe4f
:020093001ffe4e
:020094001ffe4d
:020095001ffe4c
:020096001ffe4b
:020097001ffe4a
:020098001ffe49
:020099001ffe48
:02009a001ffe47
:02009b001ffe46
:02009c001ffe45
:02009d001ffe44
:02009e001ffe43
:02009f001ffe42
:0200a0001ffe41
:0200a1001ffe40
:0200a2001ffe3f
:0200a3001ffe3e
:0200a4001ffe3d
:0200a5001ffe3c
:0200a6001ffe3b
:0200a7001ffe3a
:0200a8001ffe39
:0200a9001ffe38
:0200aa001ffe37
:0200ab001ffe36
:0200ac001ffe35
:0200ad001ffe34
:0200ae001ffe33
:0200af001ffe32
:0200b0001ffe31
:0200b1001ffe30
:0200b2001ffe2f
:0200b3001ffe2e
:0200b4001ffe2d
:0200b5001ffe2c
:0200b6001ffe2b
:0200b7001ffe2a
:0200b8001ffe29
:0200b9001ffe28
:0200ba001ffe27
:0200bb001ffe26
:0200bc001ffe25
:0200bd001ffe24
:0200be001ffe23
:0200bf001ffe22
:0200c0001ffe21
:0200c1001ffe20
:0200c2001ffe1f
:0200c3001ffe1e
:0200c4001ffe1d
:0200c5001ffe1c
:0200c6001ffe1b
:0200c7001ffe1a
:0200c8001ffd1a
:0200c9001ffd19
:0200ca001ffd18
:0200cb001ffd17
:0200cc001ffd16
:0200cd001ffd15
:0200ce001ffd14
:0200cf001ffd13
:0200d0001ffd12
:0200d1001ffd11
:0200d2001ffd10
:0200d3001ffd0f
:0200d4001ffd0e
:0200d5001ffd0d
:0200d6001ffd0c
:0200d7001ffd0b
:0200d8001ffd0a
:0200d9001ffd09
:0200da001ffd08
:0200db001ffd07
:0200dc001ffd06
:0200dd001ffd05
:0200de001ffd04
:0200df001ffd03
:0200e0001ffd02
:0200e1001ffd01
:0200e2001ffd00
:0200e3001ffdff
:0200e4001ffdfe
:0200e5001ffdfd
:0200e6001ffdfc
:0200e7001ffdfb
:0200e8001ffdfa
:0200e9001ffdf9
:0200ea001ffdf8
:0200eb001ffdf7
:0200ec001ffdf6
:0200ed001ffdf5
:0200ee001ffdf4
:0200ef001ffdf3
:0200f0001ffdf2
:0200f1001ffdf1
:0200f2001ffdf0
:0200f3001ffdef
:0200f4001ffdee
:0200f5001ffded
:0200f6001ffdec
:0200f7001ffdeb
:0200f8001ffdea
:0200f9001ffde9
:0200fa001ffde8
:0200fb001ffde7
:0200fc001ffde6
:0200fd001ffde5
:0200fe001ffde4
:0200ff001ffde3
:00000001FF
